S00B00006173702E73726563D5
S214000000D087FF1F0101000025B8010025B80100B8
S21400001025B8010025B8010025B8010025B8010063
S21400002025B8010025B8010025B801007DB90100FA
S21400003025B8010025B8010025B80100AFB80100B9
S214000040AFB80100AFB80100AFB80100AFB801000B
S214000050AFB80100AFB80100AFB80100AFB80100FB
S214000060AFB80100AFB80100AFB80100AFB80100EB
S214000070AFB80100AFB80100AFB80100AFB80100DB
S214000080AFB80100AFB80100AFB80100AFB80100CB
S214000090AFB80100AFB80100AFB80100AFB80100BB
S2140000A0AFB80100AFB80100AFB80100AFB80100AB
S2140000B0AFB80100AFB80100AFB80100AFB801009B
S2140000C0AFB80100AFB80100AFB80100AFB801008B
S2140000D0AFB80100AFB80100AFB80100AFB801007B
S2140000E0AFB80100AFB80100AFB80100AFB801006B
S2140000F0AFB80100AFB80100AFB80100AFB801005B
S21400010071B64FF0000080F31488BFF36F8F12486B
S214000110016881F30888114800B180474FF000005D
S2140001200F49104A914204D2086001F1040191423D
S214000130FAD30D490D4A914208D20D4B0868186053
S21400014001F1040103F104039142F7D3094800B119
S21400015080471CF0ABF9FEE7B06C02000000000020
S2140001604005FF1F68F5FF1FE07402001C7A0200BE
S2140001700000FF1F0000000080B588B002AF786066
S21400018007F110037868194601F038F90346DBB228
S214000190FB7597F91730002B44D1396907F10C022B
S2140001A007F10A03084611461A4603F0E1FA7B896E
S2140001B0042B37D9FB681B78472B33D1FB6803F138
S2140001C001031B78452B2DD1FB6803F102031B7836
S2140001D0542B27D1FB6803F103031B78202B21D176
S2140001E0FB6803F104031B782F2B1BD14FF0000391
S2140001F00093786843F23061C0F202014FF02C029F
S2140002004FF0010301F03CFA4FF0000300937868CA
S21400021043F26061C0F202014FF0A3024FF0010307
S21400022001F02EFA786801F0FDFA3B69184603F0F3
S2140002305FF907F11807BD4680BD00BF80B586B0E0
S21400024000AF78604FF010004FF000014FF0000252
S21400025000F024FD03463B613B69002B10D143F2BE
S2140002600470C0F2020043F22C71C0F202014FF09B
S2140002704E0243F24873C0F2020300F055F82AE03B
S21400028038694FF000014FF0500200F029FE38693F
S2140002904FF0FF0100F0E8FE07F10C03386919463D
S2140002A000F020FF0346DBB2FB7597F91730002BF2
S2140002B007D1FB681846FFF75FFFFB68184600F09B
S2140002C07BFD97F91730002BE6D0386901F0AAFAC3
S2140002D0386900F071FD07F11807BD4680BD00BF04
S2140002E080B582B002AF4FF00203009343F2707005
S2140002F0C0F2020040F23D21C0F200014FF00002C1
S2140003004FF4805300F08EFBBD4680BD80B500AF35
S2140003104FF0010015F0C2FC4FF001004FF4A2614F
S21400032016F058F880BD00BF0FB480B5C2B000AF5D
S2140003304FF007001FF078F807F58A7207F10403FC
S2140003401A6007F1080207F104031046D7F81011E7
S2140003501A6817F049FA07F10803184617F0BEF9AD
S214000360034607F108024FF0010011461A4615F041
S2140003706FFE4FF007001EF075FF07F58477BD4649
S214000380BDE8804004B0704780B596B004AF786092
S21400039040F6B8301EF074FCFFF7B8FF4FF00000D0
S2140003A04FF0000105F0A2FE4AF6C003C9F2016351
S2140003B07B646FF07F433B644AF6C003C0F20113D0
S2140003C0FB6307F10C0007F1440107F1400207F157
S2140003D03C0C4FF00003009343F65D03C0F20103AC
S2140003E0019345F60163C0F200030293634606F0EC
S2140003F09BFE07F10C03184607F026F807F10C03DE
S214000400184607F031F8FFF76BFF4FF009001FF0B2
S2140004100BF807F10C03184613F0E2F9F5E700BFF6
S21400042080B483B000AF4FF000037B6018E07A68BA
S2140004307B6803F10A0148F66413C1F6FF7343F8BC
S21400044032107B6848F66412C1F6FF724FEAC303A7
S21400045013444FF000025A607B6803F101037B608F
S2140004607B68032BE3DD4FF000037B6018E07A68BF
S2140004707B6803F1010148F61C03C1F6FF7343F8DD
S21400048032107B6848F61C02C1F6FF724FEAC303BF
S21400049013444FF000025A607B6803F101037B604F
S2140004A07B68022BE3DD4FF000037B6020E0796879
S2140004B07B6803F1030248F63403C1F6FF734FF07E
S2140004C0980000FB01F10B441A607A6848F6340382
S2140004D0C1F6FF734FF0980101FB02F2134403F1DB
S2140004E004034FF000021A607B6803F101037B608F
S2140004F07B68012BDBDD07F10C07BD4680BC70472F
S21400050080B586B000AF78600B46FB706FF00503D1
S214000510FB734FF00E001EF087FF43F28470C0F2AC
S2140005200200FFF701FF4FF000033B6138E03B6934
S21400053048F66412C1F6FF724FEAC30313445B68C1
S214000540002B29D13B6948F66412C1F6FF724FEAC8
S214000550C30313444FF001025A603B694FEAC302DB
S21400056048F66413C1F6FF731A447B681A603A694A
S21400057048F66413C1F6FF7353F832307B6178692E
S2140005801FF08CF8FB78002B02D078691EF06AFE0C
S2140005904FF00003FB7306E03B6903F101033B6188
S2140005A03B69032BC3DD97F90F3013F1060F0AD111
S2140005B07B684FF000021A6043F29470C0F20200AB
S2140005C0FFF7B2FE08E0FB7843F2AC70C0F2020020
S2140005D079691A46FFF7A8FE4FF00E001EF042FE9D
S2140005E0FB7B5BB2184607F11807BD4680BD00BF0F
S2140005F080B582B000AF78607B681B681B6843F2EA
S214000600C470C0F202001946FFF78EFE7B681B68B6
S2140006104FF000025A607B684FF000021A6043F207
S214000620D870C0F20200FFF77FFE07F10807BD464C
S21400063080BD00BF80B582B000AF78607B681B6865
S2140006401B6843F2EC70C0F202001946FFF76CFE1E
S2140006507B681B681B6818461EF004FE7B681B68D8
S2140006601B6843F60400C0F202001946FFF75CFE62
S21400067007F10807BD4680BD80B586B000AF78603C
S214000680396007F11003184620F0BCF97B681B6838
S2140006901B6843F61C00C0F202001946FFF744FE32
S2140006A03B68002B0AD07B681B681A683B681046BC
S2140006B019461EF075FF03467B6107E07B681B68E2
S2140006C01B6818461EF0B0FE03467B617B69002B54
S2140006D013D107F10C03184620F094F97B681B68C9
S2140006E01B6843F63800C0F202001946FFF71CFEEE
S2140006F0FA683B69C3EB02030BE07B681B681B6868
S21400070043F65800C0F202001946FFF70DFE4FF000
S214000710FF33184607F11807BD4680BD80B586B082
S21400072000AF786039606FF00503FB734FF00F0081
S2140007301EF07AFE43F68400C0F20200FFF7F4FDD6
S2140007404FF000033B6132E03B6948F61C02C1F6FD
S214000750FF724FEAC30313445B68002B23D13B6947
S21400076048F61C02C1F6FF724FEAC30313444FF06B
S21400077001025A603B694FEAC30248F61C03C1F601
S214000780FF731A447B681A603A6948F61C03C1F680
S214000790FF7353F832307B6178691FF0DBFF4FF050
S2140007A00003FB7306E03B6903F101033B613B6911
S2140007B0022BC9DD97F90F3013F1060F0AD17B68BB
S2140007C04FF000021A6043F69800C0F20200FFF7EE
S2140007D0ABFD07E043F6B400C0F2020079693A6860
S2140007E0FFF7A2FD4FF00F001EF03CFDFB7B5BB257
S2140007F0184607F11807BD4680BD00BF80B582B019
S21400080000AF78607B681B681B6843F6D000C0F2B8
S21400081002001946FFF788FD7B681B684FF0000250
S2140008205A607B684FF000021A6043F6E800C0F298
S2140008300200FFF779FD07F10807BD4680BD00BF3F
S21400084080B582B000AF786039607B681B681B6833
S21400085043F6FC00C0F2020019463A68FFF764FD52
S2140008607B681B681A683B68104619461FF0FAFB3F
S2140008707B681B681B6843F61C10C0F20200194612
S2140008803A68FFF751FD07F10807BD4680BD00BF77
S21400089080B584B000AF786039606FF00503FB73F5
S2140008A07B681B681B6843F63C10C0F202001946C2
S2140008B03A68FFF739FD7B681B681A683B68104684
S2140008C019461FF037FC0346002B02D14FF00003F9
S2140008D0FB737B681B681A6897F90F3043F65C1049
S2140008E0C0F2020011463A68FFF71EFDFB7B5BB2C2
S2140008F0184607F11007BD4680BD00BF80B588B01A
S21400090000AFF860B9607A6007F11803184620F067
S21400091079F8FB681B681B6843F68410C0F2020077
S2140009201946FFF701FD7B68002B0CD0FB681B689F
S2140009301968BA687B68084611461A461FF07EFE9C
S2140009400346FB6109E0FB681B681A68BB68104633
S21400095019461FF0ADFD0346FB61FB69002B13D162
S21400096007F11403184620F04DF8FB681B681B6857
S21400097043F6A010C0F202001946FFF7D5FC7A69CC
S214000980BB69C3EB02030BE0FB681B681B6843F6FE
S214000990C410C0F202001946FFF7C6FC4FF0FF3342
S2140009A0184607F12007BD4680BD00BF80B582B05F
S2140009B000AF786039607B681B681B6843F6F410EC
S2140009C0C0F202001946FFF7AFFC7B681B681A6886
S2140009D03B68104619461FF0E3FD0346002B0FD177
S2140009E07B681B681A683B681B6843F61420C0F2D5
S2140009F0020011461A46FFF797FC4FF000030BE083
S214000A007B681B681B6843F64420C0F20200194648
S214000A10FFF78AFC4FF0FF33184607F10807BD467C
S214000A2080BD00BF80B58AB002AFF860B9607A605A
S214000A303B604FF000037B614FF010001EF0F4FCAB
S214000A4043F67420C0F20200FFF76EFC4FF000037E
S214000A50BB61B4E0BA6948F63403C1F6FF734FF0E1
S214000A60980101FB02F2134403F104031B68002BF8
S214000A7040F0A180BA6948F63403C1F6FF734FF020
S214000A80980101FB02F213441B68FB61F8691DF034
S214000A903FF90346002B40F08E80BA6948F63403CF
S214000AA0C1F6FF734FF0980101FB02F2134403F105
S214000AB004034FF001021A60BA6913464FEAC303F3
S214000AC013444FEA4303134403F101034FEAC302FE
S214000AD048F63403C1F6FF7313441846F9684FF01E
S214000AE0800216F02BFEBA6948F63403C1F6FF738F
S214000AF04FF0980101FB02F2134403F18803BA6831
S214000B001A60BA6948F63403C1F6FF734FF09801CD
S214000B1001FB02F2134403F18C037A681A60BA6987
S214000B2048F63403C1F6FF734FF0980101FB02F25A
S214000B30134403F190033A681A60BA6948F634031E
S214000B40C1F6FF734FF0980101FB02F2134403F164
S214000B509403BA6A1A60F869B96A1DF0FFFA034688
S214000B60002B28D1BB694FF0980202FB03F248F62F
S214000B703403C1F6FF7313444FF0040019461FF008
S214000B8071FA0346002B16D1FB69009343F68820C2
S214000B90C0F20200F9683A68BB6AFFF7C5FBBB699A
S214000BA04FF0980202FB03F248F63403C1F6FF73D7
S214000BB013447B6107E0BB6903F10103BB61BB69BA
S214000BC0012B7FF747AF4FF010001EF04BFB7B6901
S214000BD0184607F12007BD4680BD00BF80B586B029
S214000BE002AF786007F10C034FF0040019461FF0BF
S214000BF05FFCFB6803F10801FB68D3F89020FB68F4
S214000C00D3F89430F8680068009043F6A820C0F245
S214000C100200FFF789FBFB68D3F88830FA68D2F841
S214000C208C2010469847FB684FF000025A601DF073
S214000C30A3F907F11007BD4680BD00BF80B582B09E
S214000C4000AF20F0C1F903467B607B68002B01D122
S214000C5020F0CAF87B686FEA0303184607F1080716
S214000C60BD4680BD80B582B000AF78607B68002B43
S214000C7001D020F0F1F807F10807BD4680BD00BF9F
S214000C8080B582B000AF07F1040318461FF0BAFE25
S214000C907B68184607F10807BD4680BD80B58AB058
S214000CA000AF0B463A600246FA71BB71FB791846F4
S214000CB0396801F04DFA03467B627B6A002B75D0DB
S214000CC042F21913C0F20003FB60BB793B767B6AE5
S214000CD03B6107F10C03184605F08CF90346DBB2BE
S214000CE0002B63D07B6A5B68002B0FD043F6CC20CA
S214000CF0C0F2020043F6F421C0F202014FF04F02A8
S214000D0043F61833C0F20203FFF70EFB7B6ADB687C
S214000D10002B0FD143F6CC20C0F2020043F6383148
S214000D20C0F202014FF0500243F61833C0F202033D
S214000D30FFF7FAFA7B6A1B69002B0FD143F6CC202B
S214000D40C0F2020043F65431C0F202014FF05102E5
S214000D5043F61833C0F20203FFF7E6FA7B6A5B69D4
S214000D60002B0FD043F6CC20C0F2020043F66C31C5
S214000D70C0F202014FF0530243F61833C0F20203EA
S214000D80FFF7D2FA7B6A03F10C031846FFF730FC34
S214000D907B6A03F110031846FFF730FD4FF008009A
S214000DA0796A06F063F94FF0000300E07B6A1846A4
S214000DB007F12807BD4680BD80B588B000AF7860D3
S214000DC07B68002B02D14FF0000310E042F29D63D7
S214000DD0C0F20003BB607B68FB6007F1080318469F
S214000DE005F008F9786801F01BFA4FF000035BB2D3
S214000DF0184607F12007BD4680BD00BF80B58CB001
S214000E0000AFF860B9607A60FB70FB68002B12D107
S214000E1043F6CC20C0F2020043F69031C0F2020145
S214000E204FF08C0243F61833C0F20203FFF77CFA49
S214000E304FF0F2034EE0BB68002B12D143F6CC20F5
S214000E40C0F2020043F6B031C0F202014FF08D024C
S214000E5043F61833C0F20203FFF766FA4FF0F203C8
S214000E6038E07B68002B12D143F6CC20C0F202009B
S214000E7043F6D031C0F202014FF08E0243F618332B
S214000E80C0F20203FFF750FA4FF0F20322E043F2FB
S214000E908123C0F200037B61FB68BB61BB683B62D9
S214000EA07B687B62FB7887F8283007F114031846C6
S214000EB005F0A0F80346DBB287F82F30FB681B7AF4
S214000EC05BB213F1090F03DBFB6897F82F201A7249
S214000ED097F82F305BB2184607F13007BD4680BD45
S214000EE080B58CB000AFF860B9601346FB80FB6835
S214000EF0002B12D143F6CC20C0F2020043F6F031AC
S214000F00C0F202014FF0AB0243F61833C0F2020300
S214000F10FFF70AFA4FF0F2031FE042F64903C0F269
S214000F2000037B61FB68BB61BB683B62FB88BB84DC
S214000F3007F11403184605F05DF80346DBB287F8A0
S214000F402F30FB681B7A5BB213F1090F03DBFB68DB
S214000F5097F82F201A7297F82F305BB2184607F1D1
S214000F603007BD4680BD00BF80B58CB000AFF860CE
S214000F70B9601346FB80FB68002B12D143F6CC20E9
S214000F80C0F2020043F60C41C0F202014FF0C50267
S214000F9043F61833C0F20203FFF7C6F94FF0F20328
S214000FA01FE042F62D23C0F200037B61FB68BB61A5
S214000FB0BB683B62FB88BB8407F11403184605F048
S214000FC019F80346DBB287F82F30FB681B7A5BB252
S214000FD013F1090F03DBFB6897F82F201A7297F8B6
S214000FE02F305BB2184607F13007BD4680BD00BF04
S214000FF080B58AB000AF78607B68002B12D143F6CC
S214001000CC20C0F2020043F62C41C0F202014FF0A1
S214001010DE0243F61833C0F20203FFF785F94FF0FD
S214001020F2031BE042F69133C0F20003FB607B68DC
S2140010303B6107F10C03184604F0DCFF0346DBB205
S21400104087F827307B681B7A5BB213F1090F03DB46
S2140010507B6897F827201A7297F827305BB21846F5
S21400106007F12807BD4680BD80B58AB000AF78601E
S2140010700B46FB707B68002B12D143F6CC20C0F2E7
S214001080020043F65041C0F202014FF0FA0243F666
S2140010901833C0F20203FFF747F94FF0F2031BE0E4
S2140010A042F6DD33C0F20003FB607B683B6107F16C
S2140010B00C03184604F09EFF0346DBB287F8273081
S2140010C07B681B7A5BB213F1090F03DB7B6897F82A
S2140010D027201A7297F827305BB2184607F12807C0
S2140010E0BD4680BD80B584B000AF786039603B688F
S2140010F0002B12D143F6CC20C0F2020043F670411A
S214001100C0F202014FF48F7243F61833C0F20203A6
S214001110FFF70AF94FF0F20366E03B684FF0000273
S2140011201A607B68002B12D143F6CC20C0F2020076
S21400113043F69041C0F202014FF4907243F6183322
S214001140C0F20203FFF7F0F84FF0F2034CE07B68C2
S2140011505B69002B12D143F6CC20C0F2020043F6A6
S214001160B041C0F2020140F2211243F61833C0F239
S2140011700203FFF7D9F84FF0F20335E07B681B7ADD
S214001180FB7397F90F3013F1090F01DAFB7B2BE0A5
S2140011907B6803F1140207F10803104619464FF066
S2140011A00002FFF7ABFB7B689B6A002B07D07B68CF
S2140011B09B6A78684FF001014FF000029847BB68C1
S2140011C0002B0CD17B681B7A5BB213F1090F03DB93
S2140011D07B686FF009021A724FF0F60304E0BA68F3
S2140011E03B681A604FF000035BB2184607F1100721
S2140011F0BD4680BD80B58AB000AF786039604FF0DC
S21400120000033B623B68002B12D143F6CC20C0F2B1
S214001210020043F6D441C0F2020140F25F1243F6E8
S2140012201833C0F20203FFF77FF84FF0F203B1E085
S2140012303B684FF000021A607B68002B12D143F621
S214001240CC20C0F2020043F6F441C0F2020140F2A4
S214001250611243F61833C0F20203FFF765F84FF049
S214001260F20397E07B681B69002B12D143F6CC2073
S214001270C0F2020043F61051C0F202014FF4B17200
S21400128043F61833C0F20203FFF74EF84FF0F303AD
S21400129080E07B681B7A87F8273097F9273013F1B0
S2140012A0090F02DA97F8273074E07B6803F1100222
S2140012B007F12003104619464FF00002FFF71EFB09
S2140012C07B681B78102B3ED17B681B7F03F00803DE
S2140012D0002B02D03B6A002B15D142F62163C0F2E8
S2140012E00003BB607B68FB603B6A002B03D03B6A55
S2140012F01B897B6102E04FF001037B6107F1080365
S214001300184604F077FE3B6A002B18D17B689B6A70
S214001310002B07D07B689B6A78684FF001014FF07E
S214001320000298477B681B7A5BB213F1090F03DB58
S2140013307B686FF00B021A724FF0F4032AE03B6AE8
S2140013401B89BB8416E03B6A002B0FD143F6CC20EA
S214001350C0F2020043F63451C0F2020140F2991284
S21400136043F61833C0F20203FEF7DEFF3B6A1B6843
S2140013701B89BB847B689B6A002B06D07B689B6AB4
S214001380BA8C78684FF0010198473A6A3B681A6051
S2140013904FF000035BB2184607F12807BD4680BD34
S2140013A080B582B000AF786039607B68002B03D0D0
S2140013B07B681B78102B12D043F6CC20C0F20200BC
S2140013C043F6F441C0F202014FF4DC7243F61833E0
S2140013D0C0F20203FEF7A8FF4FF0F20307E03B68F7
S2140013E078681946FFF706FF0346DBB2DBB25BB24E
S2140013F0184607F10807BD4680BD00BF80B586B019
S21400140000AF786039604FF000033B613B68002B0B
S21400141012D143F6CC20C0F2020043F6D441C0F20B
S214001420020140F2CD1243F61833C0F20203FEF773
S2140014307BFF4FF0F20390E03B684FF000021A602B
S2140014407B68002B12D143F6CC20C0F2020043F694
S214001450F441C0F2020140F2CF1243F61833C0F254
S2140014600203FEF761FF4FF0F20376E07B681B692C
S214001470002B12D143F6CC20C0F2020043F61051E6
S214001480C0F202014FF4E87243F61833C0F20203CA
S214001490FEF74AFF4FF0F3035FE07B681B78102BE4
S2140014A053D14FF00003FB604FF0070005F010FD2E
S2140014B003463B613B69002B0CD17B681B7A5BB211
S2140014C013F1090F03DB7B684FF0FF321A724FF0FF
S2140014D0FF0342E007F10C0378681946FFF78AFE1F
S2140014E00346DBB2FB7597F91730002B06D04FF09A
S2140014F00700396905F0BAFDFB7D2EE0FB68002B7E
S2140015000FD143F6CC20C0F2020043F64051C0F2A1
S214001510020140F2E51243F61833C0F20203FEF76A
S21400152003FFFA683B691A60FA683B695A603B69D0
S2140015304FF000029A813B694FF000029A603B68C8
S2140015403A691A604FF0000307E03B68786819466E
S214001550FFF750FE0346DBB2DBB25BB2184607F17C
S2140015601807BD4680BD00BF80B588B000AF786064
S21400157039607B68002B17D07B681B78102B13D143
S2140015807B681B7F03F00803002B0DD042F6216317
S214001590C0F20003BB607B68FB603B687B6107F1C1
S2140015A00803184604F026FD07F12007BD4680BD57
S2140015B080B584B000AFF860B9607A607B80BB68A5
S2140015C0002B14D07B68002B02D07B681B6801E0E0
S2140015D04FF00003BA689360BB687A889A81F8680F
S2140015E0B96800F00DF80346DBB2DBB201E04FF05D
S2140015F0FA035BB2184607F11007BD4680BD00BF70
S21400160080B58AB000AF786039607B68002B12D155
S21400161043F6CC20C0F2020043F64C51C0F2020161
S2140016204FF40F7243F61833C0F20203FEF77CFE47
S2140016304FF0F2031DE042F60D53C0F20003FB60CC
S2140016407B683B613B68BB6107F10C03184604F0FE
S214001650D1FC0346DBB287F827307B681B7A5BB287
S21400166013F1090F03DB7B6897F827201A7297F8A7
S21400167027305BB2184607F12807BD4680BD00BF7D
S21400168080B58CB000AFF860B9607A60FB70FB681C
S214001690002B12D143F6CC20C0F2020043F668516C
S2140016A0C0F2020140F25D2243F61833C0F2020394
S2140016B0FEF73AFE4FF0F2036DE0FB681B78102B46
S2140016C012D043F6CC20C0F2020043F68451C0F29A
S2140016D0020140F25E2243F61833C0F20203FEF720
S2140016E023FE4FF0FA0356E07B68002B02D14FF042
S2140016F0000350E0FB681B7F03F00203002B04D1BD
S214001700FB7803F00403002B02D04FF0010301E046
S2140017104FF0000387F82F3097F82F30002B05D0B6
S214001720BB6B002B02D14FF0FA0334E043F289136F
S214001730C0F200037B61FB68BB61BB683B62FB7861
S21400174087F828307B687B6207F11403184604F09C
S21400175051FC0346DBB287F82E3097F92E30002B6B
S2140017600DD1BB6B002B0AD097F82F30002B03D07F
S2140017707A6ABB6B1A6002E0BB6B7A681A60FB6819
S2140017801B7A5BB213F1090F03DBFB6897F82E2078
S2140017901A7297F82E305BB2184607F13007BD462E
S2140017A080BD00BF80B58AB000AF78600B46FB7086
S2140017B07B68002B12D143F6CC20C0F2020043F621
S2140017C0A851C0F202014FF4277243F61833C0F254
S2140017D00203FEF7A9FD4FF0F2031DE043F29D332E
S2140017E0C0F20003FB607B683B61FB783B7607F149
S2140017F00C03184604F0FEFB0346DBB287F82730DE
S2140018007B681B7A5BB213F1090F03DB7B6897F8E2
S21400181027201A7297F827305BB2184607F1280778
S214001820BD4680BD80B582B000AF786078684FF066
S2140018300301FFF7B7FF0346DBB2DBB25BB2184625
S21400184007F10807BD4680BD80B582B000AF78605E
S21400185013460A46FA70BB70FB78002B0CBF0022BA
S2140018600122BB78002B02D04FF0020301E04FF0BC
S214001870000342EA0303DBB2DBB278681946FFF7DF
S21400188091FF0346DBB2DBB25BB2184607F10807EE
S214001890BD4680BD80B588B000AFF860B9607A609C
S2140018A03B60FB68BB61BB69002B62D0BB691B69F0
S2140018B0002B5ED07B681B894FF0030019464FF063
S2140018C0000205F0C7FE03463B613B69002B0DD0C6
S2140018D03869796806F066FC0346DBB2002B05D053
S2140018E0386906F0A3FA4FF000033B613B69002B12
S2140018F03FD04FF0070005F0EBFA03467B617B69AB
S214001900002B05D1386906F091FA4FF0000332E05B
S2140019107B693A691A607B693A695A6049F25813DA
S214001920C1F6FF731A687B699A60BB681B7C1A460F
S2140019307B699A813B691B89FB83BB6903F11003B2
S21400194018467969FEF7A4FF0346DBB2002B05D0E4
S214001950786901F0CDFD4FF000030CE0BB699B6A8F
S214001960002B06D0BB699B6AFA8BB8694FF0000162
S21400197098474FF00003184607F12007BD4680BD84
S21400198080B588B000AFF860B9607A603B60BB682D
S214001990002B0FD143F6C450C0F2020043F6EC51C0
S2140019A0C0F202014FF09B0243F61063C0F202033E
S2140019B0FEF7BAFCFB68002B0FD143F6C450C0F20A
S2140019C0020043F63061C0F202014FF09C0243F67B
S2140019D01063C0F20203FEF7A7FCFB68BB61BB699D
S2140019E05A68BB689A420FD043F6C450C0F2020051
S2140019F043F65061C0F202014FF09E0243F61063B8
S214001A00C0F20203FEF790FCBB69002B03D0BB6953
S214001A101B69002B03D1786806F008FA3CE04FF00B
S214001A20070005F055FA03467B617B69002B03D15E
S214001A30786806F0FBF92FE07B697A681A607B69A4
S214001A407A685A603B68002B02D03B681B6801E04E
S214001A504FF000037A6993607B693A8D9A817B68C0
S214001A601B89FB83BB6903F1100318467969FEF7EF
S214001A700FFF0346DBB2002B03D0786901F038FD78
S214001A800AE0BB699B6A002B06D0BB699B6AFA8B8F
S214001A90B8694FF00001984707F12007BD4680BDA2
S214001AA080B586B000AFF860B9607A60FB70BB683E
S214001AB0002B0FD143F6C450C0F2020043F670610B
S214001AC0C0F202014FF0DE0243F61063C0F20203DA
S214001AD0FEF72AFCFB68002B0FD143F6C450C0F279
S214001AE0020043F69461C0F202014FF0DF0243F6B3
S214001AF01063C0F20203FEF717FCFB683B613B690C
S214001B005A68BB689A420FD043F6C450C0F202002F
S214001B1043F6B461C0F202014FF0E10243F61063EF
S214001B20C0F20203FEF700FC3B69002B02D14FF027
S214001B30FA0340E03B691B69002B0ED17B68002B43
S214001B4008D07B681B89B868194607F0EBFC7868F4
S214001B5006F06CF94FF000032DE03B691B7A5BB290
S214001B6013F1090F02DB3B69FA781A727B68002BC7
S214001B7003D07B681B89FB8202E04FF00003FB82E8
S214001B803B6903F1100318467968FEF781FE0346A9
S214001B90DBB2002B02D04FF0FF030CE03B699B6AE0
S214001BA0002B06D03B699B6AFA8A38694FF0000121
S214001BB098474FF000035BB2184607F11807BD467A
S214001BC080BD00BF80B584B000AF786039607B68A8
S214001BD0FB60FB68002B0FD143F6C450C0F2020036
S214001BE043F6D461C0F202014FF48D7243F61063DF
S214001BF0C0F20203FEF798FBFB685B78012B03D16B
S214001C00F86801F049F906E0FB685B78042B02D11E
S214001C10F86800F0E7FBFB681B7F03F01003002B5F
S214001C2023D0FB685B68002B1FD0FB685B68B3F8AB
S214001C30662040F22F439A4217D9FB685B68B3F8D8
S214001C406830042B11D8FB681B7F03F0EF03FA689B
S214001C501377FB689B6A002B07D0FB689B6AF868C3
S214001C604FF002014FF0000298474FF000035BB2BE
S214001C70184607F11007BD4680BD00BF80B586B088
S214001C8000AFF860B9601346FB80FB687B617B6938
S214001C90002B0FD143F6C450C0F2020043F6D461C5
S214001CA0C0F202014FF49F7243F61063C0F20203C3
S214001CB0FEF73AFB7B695B78012B03D1786901F06C
S214001CC0EBF806E07B695B78042B02D1786900F0BC
S214001CD089FB7B69002B22D07B695B68002B1ED0BA
S214001CE07B695B68B3F8662040F22F439A4216D9A8
S214001CF07B695B68B3F86830042B10D87B691B7F60
S214001D0003F0EF037A6913777B699B6A002B06D092
S214001D107B699B6AFA8878694FF0020198474FF012
S214001D2000035BB2184607F11807BD4680BD00BF2A
S214001D3080B586B000AF78600B46FB707B68FB60B2
S214001D40FB68002B0FD143F6C450C0F2020043F6E6
S214001D50D461C0F202014FF4B17243F61063C0F2D0
S214001D600203FEF7E1FAFB684FF000025A60FB68D8
S214001D70FA781A72FB685B78FB74FB684FF0000217
S214001D805A70FB689B6A002B07D0FB689B6AF86852
S214001D904FF004014FF000029847FB689B6A002B47
S214001DA007D0FB689B6AF8684FF000014FF000020E
S214001DB09847FB689B6A002B07D0FB689B6AF8680D
S214001DC04FF002014FF000029847FB681B69002B9A
S214001DD007D0FB6803F1100318464FF00001FEF72A
S214001DE057FDFB685B69002B07D0FB6803F1140303
S214001DF018464FF00001FEF74BFDFB7C012B05D08B
S214001E00FB7C042B02D0FB7C032B34D1FB681B7FAE
S214001E1003F00403002B0CBF002301237B61FB6847
S214001E201B7F03F0FB03FA6813777B69002B37D11F
S214001E30FB685B6A002B0FD143F6C450C0F2020069
S214001E4043F6E461C0F2020140F28B1243F61063DF
S214001E50C0F20203FEF768FAFB685B6AFA781A714A
S214001E60FB684FF000025A62FB6803F10C03184649
S214001E70FEF7E0FB15E0FB685B6A002B11D043F62B
S214001E80C450C0F2020043F60071C0F202014FF4E3
S214001E90C97243F61063C0F20203FEF745FA00E08B
S214001EA000BF07F11807BD4680BD00BF80B584B0EF
S214001EB000AF78607B685B68FB60F868796808F05C
S214001EC017FBF86841F6A121C0F2000108F01EFBDE
S214001ED0F86841F67D41C0F2000108F039FBF86869
S214001EE041F6C531C0F200014FF0040208F080FB55
S214001EF0F86841F63151C0F2000108F049FB07F1DD
S214001F001007BD4680BD00BF80B588B000AFF86042
S214001F10B9601346FB71FB68BB61BB695B69002B4C
S214001F2002D14FF0FA0363E0BB691A78BB699B6A7B
S214001F301046194600F00CF903467B617B69002BBE
S214001F4002D14FF0FF0353E07B69BA685A607869A4
S214001F50FFF7ACFF7B69FA791A72BB6903F11403C9
S214001F6018467969FEF794FC0346DBB2002B31D0A5
S214001F707B695B68FB61F8694FF0000108F0B8FA0E
S214001F80F8694FF0000108F0C1FAF8694FF0000157
S214001F9008F0DEFAF8694FF000014FF0040208F08E
S214001FA027FBF8694FF0000108F0F2FA7B694FF062
S214001FB000025A607B6903F110031846FEF71EFC08
S214001FC07B694FF000021A61786900F029F94FF03A
S214001FD0FF030DE0BB699B6A002B07D0BB699B6AB9
S214001FE0B8694FF000014FF0000298474FF0000329
S214001FF05BB2184607F12007BD4680BD90B583B09A
S21400200000AF78607B681B685B68002B0FD043F6D8
S214002010C450C0F2020043F61C71C0F202014FF435
S214002020F67243F61063C0F20203FEF77DF97B6892
S2140020301B681B7803F0F003202B25D0402B02D022
S214002040102B4AD05FE07B681C687B681B7A1846BA
S21400205006F090FD034663607B681B685B68002B98
S21400206004D17B684FF0FF321A7150E07B681B6822
S2140020705A687B681B68104641F69501C0F200015D
S2140020801A4606F08DFC42E07B681C680DF0A6FD43
S214002090034663607B681B685B68002B04D17B6823
S2140020A04FF0FF321A7132E07B681B681B78222BD8
S2140020B005D17B681B685B684FF001021A747B6869
S2140020C01B685A687B681B68104641F68111C0F28F
S2140020D000011A460DF034FD19E07B681C6808F014
S2140020E0FDF9034663607B681B685B68002B04D1C0
S2140020F07B684FF0FF321A7109E07B681B68184650
S214002100FFF7D4FE03E07B686FF005021A7107F153
S2140021100C07BD4690BD00BF80B582B000AF7860AA
S2140021207B684FF000021A717B681B685B68002BA7
S21400213002D17868FFF762FF7B681B6803F10C0327
S2140021401846FEF777FA07F10807BD4680BD00BFC0
S21400215080B584B000AF03463960FB714FF00800CD
S21400216004F0B6FE0346BB60BB68002B02D14FF0FE
S214002170000350E0BB684FF000021A72BB68FA79A1
S2140021801A70BB684FF000025A604FF00003FB6005
S214002190BB6803F10C0318464FF00001FEF7B0F9D8
S2140021A00346DBB2002B2ED1BB6803F110031846A2
S2140021B0F968FEF7B3FA0346DBB2002B06D0BB681D
S2140021C003F10C031846FEF713FA1DE0BB684FF048
S2140021D000025A61BB684FF000025A70BB684FF0AD
S2140021E0FF329A61BB683A689A62BB684FF0000299
S2140021F05A62BB684FF000021A62BB684FF00002DA
S2140022001A77BB6807E000BF4FF00800B96804F013
S2140022102DFF4FF00003184607F11007BD4680BD9E
S21400222080B582B000AF78607B685B68002B0FD00B
S21400223043F6C450C0F2020043F63C71C0F20201FD
S21400224040F2932243F61063C0F20203FEF76CF8E6
S2140022507B681B69002B0FD043F6C450C0F2020007
S21400226043F66C71C0F2020140F2952243F6106309
S214002270C0F20203FEF758F87B685B69002B0FD0AC
S21400228043F6C450C0F2020043F6A871C0F2020141
S2140022904FF4267243F61063C0F20203FEF744F8CA
S2140022A07B6803F10C031846FEF7A2F97B684FF033
S2140022B00002DA604FF00800796804F0D7FE07F1F4
S2140022C00807BD4680BD00BF80B586B000AF786009
S2140022D07B681B69002B36D01EE07B681B78102BB2
S2140022E014D1FB68002B16D0FB683B617B685B68EB
S2140022F0002B07D07B685A683B691B891046194635
S21400230007F010F9386905F091FD05E0FB681846FE
S21400231001F0EEF800E000BF7B6803F1100207F161
S2140023200C0310461946FEF741FB0346B3F1FF3F88
S214002330D3D17B6803F110031846FEF75FFA7B687B
S2140023404FF000021A617B685B69002B45D02DE0D8
S214002350FB687B617B685B68002B14D07B685B68DE
S2140023601B7E012B0FD043F6C450C0F2020043F68A
S214002370E471C0F2020140F2D22243F61063C0F2CA
S2140023800203FDF7D1FF7869FFF79EFF7B695B6864
S214002390002B08D07B695B68184606F0FDFE7B695B
S2140023A04FF000025A607869FFF73AFF7B6803F146
S2140023B0140207F10C0310461946FEF7F7FA034617
S2140023C0B3F1FF3FC4D17B6803F114031846FEF750
S2140023D015FA7B684FF000025A6107F11807BD46F0
S2140023E080BD00BF80B584B000AF78607B68002BEE
S2140023F00FD143F6C450C0F2020044F21401C0F2FA
S21400240002014FF43C7243F61063C0F20203FDF77C
S2140024108BFF7B681B78102B0FD043F6C450C0F29E
S214002420020044F22401C0F2020140F2F12243F617
S2140024301063C0F20203FDF777FF7B685B78042B1E
S2140024400FD043F6C450C0F2020044F24401C0F27A
S214002450020140F2F22243F61063C0F20203FDF7D7
S21400246063FF7B685B68002B0FD143F6C450C0F255
S214002470020044F26801C0F2020140F2F32243F681
S2140024801063C0F20203FDF74FFF7B685B6A002B08
S2140024900FD143F6C450C0F2020043F6E461C0F226
S2140024A002014FF43D7243F61063C0F20203FDF7DB
S2140024B03BFF7B685B6A1B7A3B733B7B03F0010345
S2140024C07B733B7B03F00203BB733B7B032B14BF86
S2140024D000230123FB73FB7B002B06D07B685B6825
S2140024E018464FF0000108F003F87B685B681B7E17
S2140024F0012B07D17B685B6818464FF0000108F097
S21400250069F82DE07B7B002B0DD07B685B68184656
S2140025104FF0000107F0FAFF7B685B6818464FF043
S214002520000108F057F8BB7B002B06D07B685B6881
S21400253018464FF0000108F00BF8FB7B002B0FD07D
S2140025407B685B6818464FF000014FF0040208F005
S2140025504FF87B685B6818464FF0000108F018F8E3
S214002560FB7B002B08D07B685B68184606F020FDD6
S2140025700346DBB2FB720BE07B6859687A7BBB7B59
S214002580084611461A4606F031FD0346DBB2FB72DA
S21400259097F90B30002B44D17B685B6A4FF0000242
S2140025A01A717B684FF000025A627B684FF0000297
S2140025B05A70FB7B002B0FD07B684FF000025A60EE
S2140025C07B689B6A002B07D07B689B6A78684FF015
S2140025D004014FF0000298477B7B002B0BD07B68F2
S2140025E09B6A002B07D07B689B6A78684FF00001D7
S2140025F04FF000029847BB7B002B0BD07B689B6A92
S214002600002B07D07B689B6A78684FF002014FF07A
S214002610000298477B6803F10C031846FEF70AF899
S21400262037E07B685B681B7E012B0FD143F6C450F6
S214002630C0F2020044F27C01C0F2020140F22D32E8
S21400264043F61063C0F20203FDF76EFE7B685B681C
S214002650184641F67D41C0F2000107F079FF7B681D
S2140026605B68184641F6C531C0F200014FF004021F
S21400267007F0BEFF7B685B68184641F63151C0F232
S214002680000107F085FF7B685B681846796807F0ED
S2140026902FFF07F11007BD4680BD00BF80B582B092
S2140026A000AF78607B681B685B78002B23D07B6864
S2140026B01B685B78022B1ED07B681B685B78032B3D
S2140026C019D07B681B681B78102B0FD043F6C450BC
S2140026D0C0F2020044F2A001C0F2020140F247320A
S2140026E043F61063C0F20203FDF71EFE7B686FF030
S2140026F004021A7197E07B681B685B78032B16D17F
S2140027007B681B681B7F03F00403002B0FD143F686
S214002710C450C0F2020044F2C001C0F2020140F20E
S2140027204B3243F61063C0F20203FDF7FDFD7B68F3
S2140027301B681846FFF7C8FD7B681B685B68002BA4
S21400274051D07B681B681B7803F0F003202B0BD05E
S214002750402B02D0102B14D040E07B681B685B68CF
S214002760184606F0CBF939E07B681B685B684FF0CB
S2140027700002DA617B681B685B6818460DF0F2F9A8
S2140027802CE07B681B685B6A002B04D17B681B68A7
S2140027901B6A002B0FD043F6C450C0F2020044F26E
S2140027A0E001C0F202014FF4587243F61063C0F223
S2140027B00203FDF7B9FD7B681B684FF004025A70F0
S2140027C07B684FF003021A727B681B687A685A624D
S2140027D07B681B681846FFF705FE30E07B681B68C1
S2140027E04FF000025A607B681B689B6A002B0AD079
S2140027F07B681B689B6A7A68126810464FF0000177
S2140028004FF0000298477B681B689B6A002B0AD033
S2140028107B681B689B6A7A68126810464FF0020154
S2140028204FF0000298477B681B68DB68002B06D0D9
S2140028307B681B6803F10C031846FDF7FBFE07F1E7
S2140028400807BD4680BD00BF80B582B000AF786087
S2140028507B681B681B7A5BB213F1090F05DA7B688D
S2140028601B681A7A7B681A7143E07B686FF0050272
S2140028701A717B681B685B68002B3AD07B681B6804
S2140028801B7803F0F003202B12D0402B02D0102B25
S2140028901FD02EE07B681B685A687B689B681046D2
S2140028A0194606F04DF80346DAB27B681A7120E046
S2140028B07B681B6859687B689A687B689B890846B2
S2140028C011461A460DF04AF80346DAB27B681A71CA
S2140028D00FE07B681B6859687B689A687B689B89F1
S2140028E0084611461A4606F065FC0346DAB27B68CF
S2140028F01A717B681B6803F10C031846FDF79AFEF5
S21400290007F10807BD4680BD80B586B000AFF86009
S214002910B9601346FB71FB683B613B69002B02D133
S2140029204FF0FA037BE03B695B78032B0FD043F64E
S214002930C450C0F2020044F2FC01C0F2020140F2B0
S214002940B63243F61063C0F20203FDF7EDFC3B69B6
S2140029505B6A002B15D13B691B7F03F00403002B39
S2140029600FD143F6C450C0F2020044F21C11C0F26C
S21400297002014FF46E7243F61063C0F20203FDF7D5
S214002980D3FC3B695B6A002B03D03B695B6AFA7930
S2140029901A713B691B78102B06D197F90730002B6C
S2140029A002D13869FFF782FA3B691B7F03F0040304
S2140029B0002B14BF002301237B613B691B7F03F0C0
S2140029C0FB033A6913773B694FF000025A623B6992
S2140029D04FF000025A707B69002B09D13B691B7AC5
S2140029E05BB213F1090F03DB3B694FF000021A726A
S2140029F03B699B6A002B07D03B699B6A38694FF09E
S214002A0002014FF0000298477B69002B05D03B6916
S214002A1003F10C031846FDF70DFE4FF000035BB202
S214002A20184607F11807BD4680BD00BF80B584B0C4
S214002A3000AF78607B681B685B68002B04D17B68FE
S214002A406FF00B021A7198E07B681B681B7803F026
S214002A50F003202B12D0402B02D0102B1FD076E094
S214002A607B681B685A687B689B681046194605F0A9
S214002A707FFF0346DAB27B681A717EE07B681B68CC
S214002A8059687B689A687B689B89084611461A468F
S214002A900CF0E4FF0346DAB27B681A716DE07B68DF
S214002AA01B685B78002B04D07B686FF008021A71F5
S214002AB063E07B681B681846FFF7F8F97B681B68BD
S214002AC059687B689A687B689B89084611461A464F
S214002AD042F60913C0F2000306F0E2FD0346DAB23E
S214002AE07B681A717B681B79002B45D17B681B6855
S214002AF01B7F03F00203002B0CBF00230123FB7394
S214002B007B681B684FF003025A70FB7B002B09D0D2
S214002B107B681B687A681268127F42F00402D2B2A1
S214002B201A7707E07B681A687B681B681B7F03F0D0
S214002B30FB031377FB7B002B04D07B686FF004024B
S214002B401A711AE07B681B687A685A621CE043F6C2
S214002B50C450C0F2020044F25C11C0F2020140F21E
S214002B60034243F61063C0F20203FDF7DDFB7B6809
S214002B706FF005021A7100E000BF7B681B6803F166
S214002B800C031846FDF756FD07F11007BD4680BD3D
S214002B9080B582B000AF78607B681B681B7803F056
S214002BA0F003202B0AD17B681B685B6818460CF084
S214002BB0AFFF7B684FF000021A7103E07B686FF08E
S214002BC005021A717B681B6803F10C031846FDF7B3
S214002BD031FD07F10807BD4680BD00BF80B584B053
S214002BE000AF78607B681B681B7A5BB213F1090F35
S214002BF005DA7B681B681A7A7B681A717BE07B684B
S214002C006FF00C021A717B681B685B68002B72D031
S214002C107B681B681B78102B67D17B681B685B780A
S214002C20002B67D17B681B685B6818464FF0FF0176
S214002C3006F05CFB0346FB60FB68002B04D17B6858
S214002C404FF0FF321A7156E07B681B681B69002B39
S214002C500BD07B681B6803F110031846FDF7CEFD0A
S214002C607B681B684FF000021A617B684FF0000219
S214002C701A717B681B685B69002B0CD17B681B682C
S214002C8003F1140318464FF01001FDF747FD034605
S214002C90DAB27B681A717B681B79002B1CD17B68C3
S214002CA01B684FF002025A707B681B68FA685A600D
S214002CB07B681B685A687B681B681046194607F0D5
S214002CC017FC7B681B685B68184641F60971C0F202
S214002CD0000107F07FFC0EE0F86806F069F97B68F3
S214002CE01B684FF000025A6005E07B686FF00D022B
S214002CF01A7100E000BF7B681B6803F10C031846DE
S214002D00FDF798FC07F11007BD4680BD80B582B080
S214002D1000AF78607B681B681B7A5BB213F1090F03
S214002D2005DA7B681B681A7A7B681A716DE07B6827
S214002D306FF00C021A717B681B685B68002B64D00E
S214002D407B681B681B7803F0F003202B30D0402BE9
S214002D505BD17B689B6803F10803002B04D07B687B
S214002D609B689B68002B0FD17B681B685A687B6842
S214002D709B681B681046194605F0AAFE0346DAB2A1
S214002D807B681A7100BF40E07B681B6859687B68E7
S214002D909B681A687B689B6803F10803084611461F
S214002DA01A4605F00FFE0346DAB27B681A712CE06D
S214002DB07B689B6803F10803002B04D07B689B6844
S214002DC09B68002B0ED17B681B685A687B689B68E3
S214002DD01B68104619460CF093FC0346DAB27B6873
S214002DE01A7112E07B681B6858687B689B681968D4
S214002DF07B689B6803F108027B689B689B890CF0E4
S214002E0097FC0346DAB27B681A717B681B6803F18D
S214002E100C031846FDF70EFC07F10807BD4680BDFB
S214002E2080B584B000AF78607B684FF000021A71FE
S214002E307B681B685B68002B22D07B681B681B784E
S214002E40102B1DD17B689B68BB60BA684FF6FF737A
S214002E509A4202D8BB689BB201E04FF6FF73FB8133
S214002E607B681B685A68FB891046194606F05AFBB1
S214002E70FB89BA68C3EB0203BB60BB68002BE4D1D6
S214002E807B681B6803F10C031846FDF7D3FB07F1BC
S214002E901007BD4680BD00BF80B588B000AF786023
S214002EA04FF00003FB757B681B7F03F00203002BCB
S214002EB006D17B685B6A1B7C03F00403002B02D000
S214002EC04FF0010301E04FF00003BB777B685B6ABD
S214002ED01B7CFB777B68002B0FD143F6C450C0F2F7
S214002EE0020043F6D461C0F2020140F2C34243F648
S214002EF01063C0F20203FDF717FA7B685B78012BBC
S214002F000FD043F6C450C0F2020044F27411C0F26F
S214002F10020140F2C44243F61063C0F20203FDF71A
S214002F2003FA7B685B6A002B0FD143F6C450C0F2ED
S214002F30020043F6E461C0F2020140F2C54243F6E5
S214002F401063C0F20203FDF7EFF97B685B68002BA5
S214002F500FD143F6C450C0F2020044F29411C0F2FE
S214002F60020140F2C64243F61063C0F20203FDF7C8
S214002F70DBF97B681A6A7B685B6ADB689A420FD368
S214002F8043F6C450C0F2020044F2AC11C0F2020193
S214002F904FF4996243F61063C0F20203FDF7C4F9DA
S214002FA07B685B6A9A687B681B6A1344FB607B6875
S214002FB05B6ADA687B681B6AC3EB0203BB61BA69AB
S214002FC04FF6FF739A4207D94FF6FF737B82FB7F5B
S214002FD043F00203FB7701E0BB697B827B685B689A
S214002FE0B3F86630BB82BA8A7B8A9A4211D2BB8A11
S214002FF07B82BB7F002B06D07B8A002B08D16FF02C
S2140030000603FB7232E0FB7F43F00203FB7700E02F
S21400301000BF7B681A6A7B8A1A447B685B6ADB6837
S2140030209A420FD943F6C450C0F2020044F2E011AF
S214003030C0F2020140F2F54243F61063C0F202030A
S214003040FDF772F97B6859687A8AFB7F0846F9684B
S2140030500AF014FD0346DBB2FB7297F90B30002B27
S21400306004D097F90B30B3F1FF3F34D1BB7F002B70
S21400307018D07A8A7B685B6ADB689A4212D27B68D1
S2140030809B6A002B06D07B689B6A7A8A78684FF02A
S214003090030198477B681B7F43F01003DAB27B6816
S2140030A01A7718E07B685B68B3F8662040F22F4317
S2140030B09A4205D97B685B68B3F86830042B0AD956
S2140030C07B689B6A002B06D07B689B6A7A8A786846
S2140030D04FF00301984797F90B30002B21D17B68FE
S2140030E01A6A7B8A1A447B681A627B681A6A7B684B
S2140030F05B6ADB689A4202D0BB7F002B0BD07B68F2
S2140031005B6A7A68126ADA604FF00103FB757B68C7
S2140031104FF000021A627B685B6818460BF0C6F92F
S21400312015E097F90B30B3F1FF3F08D1BB7F002BBA
S21400313005D17B685B6818460BF0B8F907E04FF0DE
S2140031400103FB757B685B6A4FF00002DA60FB7D6B
S214003150002B11D07B685B6AFA7A1A717B684FF095
S21400316000025A627B684FF000025A707B6803F1D7
S2140031700C031846FDF75EFA4FF000035BB21846E4
S21400318007F12007BD4680BD80B582B000AF7860ED
S2140031907B681B681B7A5BB213F1090F05DA7B6844
S2140031A01B681A7A7B681A715EE07B681B681B785E
S2140031B0102B55D17B681B685B78002B04D07B688E
S2140031C06FF004021A714FE07B681B685B68002B87
S2140031D041D07B681B684FF001025A707B681B6801
S2140031E05B6A002B04D17B681B681B6A002B0FD020
S2140031F043F6C450C0F2020044F2E001C0F20201FD
S21400320040F24D5243F61063C0F20203FDF78CF80D
S2140032107B68DB68002B0FD143F6C450C0F2020077
S21400322044F20021C0F2020140F24E5243F610630F
S214003230C0F20203FDF778F87B681B687A685A626A
S2140032407B681B684FF000021A627B681B68184692
S214003250FFF722FE0FE07B686FF00C021A7103E0A6
S2140032607B686FF005021A717B681B6803F10C031C
S2140032701846FDF7DFF907F10807BD4680BD00BF19
S21400328080B582B000AF78607B681B685B68002BF7
S21400329075D07B689B687A68127C002A05D07A68AD
S2140032A01268526812681A6004E07A6812685268F7
S2140032B052681A607B684FF000021A717B681B68C0
S2140032C01B7803F0F003202B15D0402B02D0102BD8
S2140032D032D043E07B681B7C002B07D07B68DB6822
S2140032E07A6812685268127C1A804CE07B686FF02D
S2140032F00C021A7147E07B681B7C002B07D07B68AA
S214003300DB687A6812685268528A1A803BE07B68EB
S2140033101B685B681B7C03F00403002B04D17B68EE
S2140033206FF00C021A712EE07B68DB687A68126810
S2140033305268928A1A8026E07B68DA687B681B7C73
S214003340002B04D07B681B685B685B8B03E07B68A4
S2140033501B685B689B8B138000BF14E043F6C45069
S214003360C0F2020044F21421C0F2020140F29B5265
S21400337043F61063C0F20203FCF7D6FF03E07B6857
S2140033806FF00C021A717B681B6803F10C03184679
S214003390FDF750F907F10807BD4680BD80B582B03D
S2140033A000AF78607B681B685B78002B1ED07B685C
S2140033B01B685B78022B19D07B681B681B78102B68
S2140033C00FD043F6C450C0F2020044F2A001C0F28F
S2140033D0020140F2B15243F61063C0F20203FCF75A
S2140033E0A3FF7B686FF004021A7150E07B681B68CD
S2140033F05B68002B47D07B681B681B78102B42D17C
S2140034007B681B7A032B09D07B681B685B78022BD2
S21400341004D17B686FF00C021A7138E07B681B7A67
S21400342003F00103DBB2002B04D07B681B68184650
S214003430FEF74AFF7B681B685B6A002B04D17B683B
S2140034401B681B6A002B0FD043F6C450C0F2020064
S21400345044F2E001C0F2020140F2BD5243F61063AE
S214003460C0F20203FCF760FF7B681B684FF00402A3
S2140034705A707B681B687A685A627B681B681846B5
S214003480FEF7B0FF0AE07B686FF005021A717B68F2
S2140034901B6803F10C031846FDF7CCF807F1080784
S2140034A0BD4680BD80B582B000AF4FF0070003F088
S2140034B00FFD03467B607B68002B11D07B684FF0C6
S2140034C000021A607B684FF000025A607B684FF07B
S2140034D000029A607B684FF000029A817B6801E0E8
S2140034E04FF00003184607F10807BD4680BD00BF31
S2140034F080B582B000AF78607B68002B15D07B6803
S2140035001B68002B0CD07B681B68184604F08EFCEA
S2140035107B684FF000025A607B685A687B681A60C6
S2140035204FF00700796803F0A1FD07F10807BD46D4
S21400353080BD00BF80B582B000AF78600B467B8050
S2140035407B68002B12D144F22C20C0F2020044F219
S2140035505421C0F202014FF06D0244F27023C0F213
S2140035600203FCF7E1FE4FF0000337E07B681B68C0
S214003570002B04D07B681B68184604F057FC7B8839
S2140035804FF0000019464FF0000204F063F80246C0
S2140035907B681A607B681B68002B02D14FF0000323
S2140035A01CE07B681B685B897A889A420FD944F2D4
S2140035B02C20C0F2020044F29021C0F202014FF02B
S2140035C0780244F27023C0F20203FCF7ADFE7B687B
S2140035D01A687B685A607B681B685B68184607F148
S2140035E00807BD4680BD00BF80B582B000AF7860DA
S2140035F07B68002B10D144F22C20C0F2020044F26B
S214003600B421C0F202014FF0850244F27023C0F2EA
S2140036100203FCF789FE10E07B681B68002B04D0D1
S2140036207B681B68184604F001FC7B684FF00002BC
S2140036305A607B685A687B681A6007F10807BD46BF
S21400364080BD00BF80B584B000AFF860B960134697
S214003650FB80FB68002B12D144F22C20C0F2020043
S21400366044F2D021C0F202014FF0980244F27023D7
S214003670C0F20203FCF758FE4FF0F20330E0FB689E
S2140036801B68002B04D0FB681B68184604F0CEFBB2
S2140036904FF000004FF000014FF0020203F0DAFF97
S2140036A00246FB681A60FB681B68002B06D1FB68A5
S2140036B04FF000025A604FF0FF0311E0FB681B68F2
S2140036C0BA685A60FB681A68FB681B68F988198133
S2140036D01B895381FB681A68FB685A604FF0000329
S2140036E05BB2184607F11007BD4680BD80B582B0B4
S2140036F000AF786039607B68002B10D144F22C2034
S214003700C0F2020044F2E821C0F202014FF0B0021B
S21400371044F27023C0F20203FCF706FE24E03B6886
S214003720002B10D144F22C20C0F2020044F20431E7
S214003730C0F202014FF0B10244F27023C0F202035D
S214003740FCF7F2FD10E07B681A683B681B681046C1
S214003750194604F04DFC7B681A687B685A604FF087
S2140037600700396803F082FC07F10807BD4680BDF4
S21400377080B584B000AFF860B9607A60FB68002B53
S21400378012D144F22C20C0F2020044F22031C0F2E2
S21400379002014FF0C30244F27023C0F20203FCF7AA
S2140037A0C3FD4FF0F2033EE0BB68002B12D144F29B
S2140037B02C20C0F2020044F23C31C0F202014FF06D
S2140037C0C40244F27023C0F20203FCF7ADFD4FF0D2
S2140037D0F20328E07B68002B12D144F22C20C0F2C2
S2140037E0020044F25C31C0F202014FF0C50244F21E
S2140037F07023C0F20203FCF797FD4FF0F20312E0CD
S214003800FB685B68002B02D14FF0FE030BE0FB6801
S2140038105B685A68BB681A60FB685B685A897B6895
S2140038201A804FF000035BB2184607F11007BD463A
S21400383080BD00BF80B582B000AF78607B68002B8B
S21400384012D144F22C20C0F2020044F2B421C0F29D
S21400385002014FF0DC0244F27023C0F20203FCF7D0
S21400386063FD4FF0FF0316E07B685B681B68002B68
S21400387002D14FF0FF030EE07B685B681A687B6836
S2140038805A607B685B681B68002B02D14FF001030F
S21400389001E04FF000035BB2184607F10807BD468B
S2140038A080BD00BF80B582B000AF78607B68002B1B
S2140038B010D144F22C20C0F2020044F2B421C0F22F
S2140038C002014FF0F10244F27023C0F20203FCF74B
S2140038D02BFD03E07B681A687B685A6007F10807CF
S2140038E0BD4680BD80B400AFBD4680BC704700BFFB
S2140038F080B485B000AF78607B68002B02DB7B6805
S214003900032B02DD4FF0000315E07A6813464FEAFA
S214003910430313444FEAC3031A4640F24053C1F62A
S214003920FF731344FB60FB681B68002B02D14FF04B
S214003930000300E0FB68184607F11407BD4680BC8C
S214003940704700BF80B483B000AF78607B68002B00
S21400395002DB7B68032B02DD4FF000031EE0796874
S21400396040F24052C1F6FF720B464FEA43030B4447
S2140039704FEAC30313441B68002B02D14FF0000329
S2140039800CE07A6813464FEA430313444FEAC30336
S2140039901A4640F24053C1F6FF731344184607F127
S2140039A00C07BD4680BC704780B485B000AF786019
S2140039B039604FF00003FB60A4E0F96840F2405223
S2140039C0C1F6FF720B464FEA43030B444FEAC303AC
S2140039D013441B68002B40F09180F96840F2405277
S2140039E0C1F6FF720B464FEA43030B444FEAC3038C
S2140039F013447A681A60F96840F24052C1F6FF72C2
S214003A000B464FEA43030B444FEAC303134403F148
S214003A1004034FF000021A60F96840F24052C1F603
S214003A20FF720B464FEA43030B4403F101034FF0CA
S214003A30000122F83310F96840F24052C1F6FF72D6
S214003A400B464FEA43030B4403F101034FEAC3035B
S214003A5013444FF000025A80F9687B681B78102BDD
S214003A6002D13B68002B02D04FF0010301E04FF07B
S214003A70000398B240F24052C1F6FF720B464FEA7E
S214003A8043030B4403F101034FEAC3031344024606
S214003A909A80F96840F24052C1F6FF720B464FEA30
S214003AA043030B4403F101034FEAC30313444FF0EF
S214003AB00002DA80F96840F24052C1F6FF720B4607
S214003AC04FEA43030B444FEAC303134403F11003C6
S214003AD04FF000021A60F96840F24052C1F6FF72D9
S214003AE00B464FEA43030B444FEAC303134403F168
S214003AF014034FF000021A60FB6809E0FB6803F14C
S214003B000103FB60FB68032B7FF757AF4FF0FF33D3
S214003B10184607F11407BD4680BC704780B584B0D0
S214003B2000AF786039607B685B68FB607B684FF04D
S214003B3000025A607B684FF000021A817B684FF0E3
S214003B4000021A617B684FF000021A60FB68002BC7
S214003B500BD03B68002B04D0FB68184604F066F9CF
S214003B6003E0FB681846FFF7C3FC07F11007BD46E5
S214003B7080BD00BF80B590B000AFF860B9607A60D5
S214003B80F868FFF7B5FE03463B633B6B002B02D19C
S214003B904FF0FF3337E13B6B1B681B7F03F00203DC
S214003BA0002B0BD03B6B5B891BB2002B06DC3B6B00
S214003BB04FF00B021A614FF0FF3324E13B6B1A689B
S214003BC007F12C0310461946FDF78CFA0346DBB2C4
S214003BD087F83F3097F93F30002B23D03B6B1B68AC
S214003BE01B78102B06D03B6B4FF05F021A614FF02C
S214003BF05F0308E197F93F30C3F100030F2B0AD8A3
S214003C0097F93F30C3F1000244F27833C0F2020362
S214003C1053F8223001E04FF005033A6B13614FF082
S214003C20FF33F0E0FB6A002B0FD144F2B830C0F24D
S214003C30020044F2E031C0F202014FF4AD7244F2E9
S214003C40F033C0F20203FCF76FFBFB6AFA6A127FDE
S214003C5042F00802D2B21A77F96A07F1280207F191
S214003C602603084611461A464FF00003FDF7C6F82D
S214003C700346DBB287F83F3097F93F30002B1BD066
S214003C80FB6A1846FDF798F897F93F30C3F1000332
S214003C900F2B0AD897F93F30C3F1000244F278336D
S214003CA0C0F2020353F8223001E04FF005033A6BEE
S214003CB013614FF0FF33A6E0BB68002B3AD07B6859
S214003CC0002B0FD144F2B830C0F2020044F210418B
S214003CD0C0F2020140F26B1244F2F033C0F202036B
S214003CE0FCF722FB07F1140318464FF000014FF0D3
S214003CF0100213F089FC4FF010033B754FF00203DF
S214003D007B75FB8C184602F06FFA0346FB82BB6A93
S214003D10BB617B681B68102B03D97B684FF01002D1
S214003D201A607B681B6807F11402B86811461A46C9
S214003D3013F0A2FBFB6A18464FF00101FFF734FEB2
S214003D400346BB63BB6BB3F1FF3F0AD1FB6A184661
S214003D50FDF732F83B6B4FF017021A614FF0FF3356
S214003D6051E0BB6B002B02DBBB6B032B0FDD44F279
S214003D70B830C0F2020044F22C41C0F202014FF407
S214003D80BF7244F2F033C0F20203FCF7CDFAFB6ACE
S214003D909A6A44F68D73C0F200039A420FD044F23A
S214003DA0B830C0F2020044F24441C0F2020140F2D0
S214003DB07F1244F2F033C0F20203FCF7B5FABA6B96
S214003DC013464FEA430313444FEAC3031A4640F22E
S214003DD04053C1F6FF7313447B637B6B5B899AB2D7
S214003DE0FB6A9B699BB26FEA03039BB213449BB2C8
S214003DF01A467B6B5A81FB6ABA6B9A613B6B4FF033
S214003E0000021A61BB6B184607F14007BD4680BD2D
S214003E1090B589B000AFF860B9607A60F868FFF7CF
S214003E2067FD03467B617B69002B02D14FF0FF33B1
S214003E3060E07B68102B08D1BB685B78022B04D14E
S214003E40BB6803F00303002B19D044F2B830C0F26D
S214003E50020044F26841C0F2020140F2A51244F2A8
S214003E60F033C0F20203FCF75FFA44F27833C0F294
S214003E7002039A6B7B691A614FF0FF333AE0BB6826
S214003E80FB61FB695B683B61FB695B883B837B6925
S214003E901C683B8B184602F0BFF9034607F1100278
S214003EA0204611461A46FDF71BF80346DBB2FB76A2
S214003EB097F91B30002B17D097F91B30C3F100037E
S214003EC00F2B0AD897F91B30C3F1000244F278335F
S214003ED0C0F2020353F8223001E04FF005037A697E
S214003EE013614FF0FF3305E07B694FF000021A6163
S214003EF04FF00003184607F12407BD4690BD00BFEB
S214003F0080B584B000AF78604FF00003FB6078683F
S214003F10FFF7EEFC0346BB60BB68002B02D14FF0F8
S214003F20FF332BE0BB681B68002B08D0BB681B6800
S214003F301B78102B14BF00230123FB6013E0BB6823
S214003F405B68002B0FD044F2B830C0F2020044F297
S214003F508441C0F202014FF4E67244F2F033C0F23C
S214003F600203FCF7E1F9BB681B681846FCF724FF60
S214003F70B868F968FFF7D2FD4FF00003184607F15E
S214003F801007BD4680BD00BF90B58BB000AFF8608F
S214003F90B9607A60F868FFF7ABFC0346BB61BB69A3
S214003FA0002B02D14FF0FF336DE07B68102B08D159
S214003FB0BB685B78022B04D1BB6803F00303002BBD
S214003FC019D044F2B830C0F2020044F29C41C0F26C
S214003FD0020140F2E51244F2F033C0F20203FCF7AD
S214003FE0A3F944F27833C0F202039A6BBB691A61F4
S214003FF04FF0FF3347E0BB683B623B6A5B78002BC1
S21400400008D1BB691B681846FCF7F2FF0346DBB213
S214004010FB7716E03B6A5B687B613B6A5B88FB84E8
S214004020BB691C68FB8C184602F0F6F8034607F1DD
S2140040301402204611461A46FCF796FF0346DBB2EA
S214004040FB7797F91F30002B17D097F91F30C3F175
S21400405000030F2B0AD897F91F30C3F1000244F271
S2140040607833C0F2020353F8223001E04FF0050324
S214004070BA6913614FF0FF3305E0BB694FF00002E9
S2140040801A614FF00003184607F12C07BD4690BD95
S21400409080B584B000AF786039607868FFF728FC98
S2140040A00346BB60BB68002B02D14FF0FF3342E0F3
S2140040B03B68FE2B03DC3B6823EAE37301E04FF02A
S2140040C0FF033B60BB681A683B68DBB210461946C4
S2140040D0FCF7CAFF0346DBB2FB7397F90F30002BE1
S2140040E023D0BB681B681B78102B06D0BB684FF02C
S2140040F05F021A614FF05F031DE097F90F30C3F1BE
S21400410000030F2B0AD897F90F30C3F1000244F2D0
S2140041107833C0F2020353F8223001E04FF0050373
S214004120BA6813614FF0FF3305E0BB684FF000023A
S2140041301A614FF00003184607F11007BD4680BD10
S21400414080B592B000AFF860B9607A603B604FF01F
S2140041500003FB624FF00003FB634FF0000387F899
S2140041604630F868FFF7C4FB03463B633B6B002B07
S21400417002D14FF0FF3393E13B6B5B68002B03D01B
S2140041803B6B5B68FB628FE03B6803F00803002B29
S21400419006D13B6B1B681B7F03F00203002B1BD072
S2140041A03B6B5B891BB2002B16DCFB6B002B0CDD1C
S2140041B03B6B1A68FB6B10461946FDF7D5F93B6B4F
S2140041C04FF000021A61FB6B6AE13B6B4FF00B028B
S2140041D01A614FF0FF3363E13B6B1B681B78102BB3
S2140041E00CD13B6B1A6807F12C0310461946FDF7F5
S2140041F0D7F80346DBB287F847300BE03B6B1A680C
S21400420007F12C0310461946FDF7F8F80346DBB213
S21400421087F8473097F94730002B2FD0FB6B002BE1
S2140042200CDD3B6B1A68FB6B10461946FDF79CF9D4
S2140042303B6B4FF000021A61FB6B31E197F9473098
S214004240C3F100030F2B0AD897F94730C3F10002D9
S21400425044F27833C0F2020353F8223001E04FF004
S21400426005033A6B136197F9473013F10C0F02D12F
S2140042704FF0000314E14FF0FF3311E1FB6A002B0F
S2140042800FD144F2B830C0F2020044F2BC41C0F292
S214004290020140F2712244F2F033C0F20203FCF74E
S2140042A043F8FA6A3B6B5A603B6B1B681B78102B13
S2140042B002D1FB6A7B6302E0FB6A1B687B637B6B55
S2140042C01B893B873B6B1B893A8FC3EB02033B87FB
S2140042D03A8F7B689A4202D23B8F7B8701E07B68ED
S2140042E07B87FA6BBB6802EB03013B6B1B897A8FFB
S2140042F0786B04F059F87B8FFA6B1344FB633B6BC7
S2140043001B681B78102B32D17A8F7B689A420FD9A4
S21400431044F2B830C0F2020044F2C841C0F20201D2
S21400432040F28D2244F2F033C0F20203FBF7FCFFAA
S2140043307B8F7A68C3EB02037B607B68002B11D00F
S2140043407B6B5B7B03F00103DBB2002B0AD13B6B7C
S2140043505B891BB2002B05DD3B6803F00103DBB273
S214004360002B09D04FF0010387F8463005E04FF0E8
S214004370010387F8463000E000BF97F84630002B70
S21400438049D03B6D002B46D07B6D002B43D03B6B5A
S2140043901B681B78102B0ED107F124033B643B6B84
S2140043A01A6807F12A031046396C1A464FF00003C4
S2140043B0FCF724FD06E0FB6A03F108033B64FB6A96
S2140043C09B897B8507F1140318464FF000014FF0D8
S2140043D0100213F019F94FF010033B754FF002036B
S2140043E07B757B8D184601F0FFFE0346FB823B6C17
S2140043F01B68BB617B6D1B68102B03D97B6D4FF070
S21400440010021A607B6D1B6807F11402386D1146A6
S2140044101A4613F031F83B6803F00103002B2BD14A
S2140044203B6B1B681B78102B10D13A8F7B8FC3EB2E
S2140044300203002B0ADDFA6A3B6B5A603B6B1A8953
S2140044407B8F13449AB23B6B1A8115E03B6B4FF09F
S21400445000025A603B6B4FF000021A813B6B1B68F0
S2140044601B78102B04D1FB6A184603F0DFFC03E030
S214004470FB6A1846FFF73CF897F84630002B3FF4E7
S2140044807BAEFB6B002B06DD3B6B1A68FB6B1046A6
S2140044901946FDF769F83B6B4FF000021A61FB6B9B
S2140044A0184607F14807BD4680BD00BF80B586B0F8
S2140044B002AFF860B9607A604FF0000300934FF0E7
S2140044C000030193F868B9687A684FF00003FFF7B5
S2140044D037FE0346184607F11007BD4680BD00BFED
S2140044E080B586B002AFF860B9607A603B604FF086
S2140044F0000300934FF000030193F868B9687A68E8
S2140045003B68FFF71DFE0346184607F11007BD4639
S21400451080BD00BF80B58AB002AFF860B9607A602F
S2140045203B60F868FFF7E4F90346BB61BB69002B04
S21400453002D14FF0FF3358E0BB691B681B78102B85
S2140045400DD04FF0000300934FF000030193F8687E
S214004550B9687A683B6800F04DF8034645E03B686A
S21400456003F01003002B02D04FF0030201E04FF0DF
S21400457001023B6803F00803002B02D04FF004034F
S21400458001E04FF0000342EA0303DBB2FB774FF093
S21400459000037B61BB691A68FB7F07F11401009179
S2140045A01046B9687A68FDF76BF80346DBB2BB774E
S2140045B097F91E30C3F100030F2B0AD897F91E3067
S2140045C0C3F1000244F27833C0F2020353F82230FB
S2140045D001E04FF00503BA69136197F91E30002B0E
S2140045E001D17B6901E04FF0FF33184607F1200741
S2140045F0BD4680BD80B58CB000AFF860B9607A600B
S2140046003B60F868FFF774F903463B623B6A002B91
S21400461002D14FF0FF33ADE03B6A1B681B78102BCE
S21400462007D1F868B9687A683B68FFF773FF0346F6
S214004630A0E07A684FF6FF739A420FD944F2B8307A
S214004640C0F2020044F2F041C0F2020140F23232FF
S21400465044F2F033C0F20203FBF766FE7B68FB848D
S214004660BB6B002B02D1FB6B002B25D0FB6B102BFA
S21400467008D1BB6B5B78022B04D1BB6B03F0030342
S214004680002B19D044F2B830C0F2020044F21451A4
S214004690C0F2020140F2373244F2F033C0F20203B5
S2140046A0FBF742FE44F27833C0F202039A6B3B6A91
S2140046B01A614FF0FF335DE0BB6BBB624FF0000347
S2140046C07B617B693B61BB6B002B0CD0BB6A5B6874
S2140046D0BB61BB6A5B88184601F09EFD0346FB85FE
S2140046E0FB8DBB8308E04FF00003FB854FF0000313
S2140046F0BB614FF00003BB8307F11002FB8C104632
S214004700B9681A46FEF79EFF0346DBB287F82530E7
S21400471097F92530002B0BD13B6A1A6807F1100376
S21400472010461946FCF76CFF0346DBB287F82530C7
S21400473007F110031846FEF757FF97F92530C3F127
S21400474000030F2B0AD897F92530C3F1000244F274
S2140047507833C0F2020353F8223001E04FF005032D
S2140047603A6A136197F92530002B01D1FB8C01E0E2
S2140047704FF0FF33184607F13007BD4680BD00BF37
S21400478080B586B000AFF860B9607A60BB68022B6F
S21400479012D0032B02D0012B22D038E07B68DBB28C
S2140047A04FF04000194644F68D72C0F20002FCF746
S2140047B075FA03463B612EE07B68882B02D14FF0EA
S2140047C0210301E04FF0200318464FF0000144F6A5
S2140047D08D72C0F20002FCF761FA03463B611AE0F4
S2140047E04FF010004FF0000144F68D72C0F2000248
S2140047F0FCF754FA03463B613B69002B0AD03B6941
S2140048001B7F43F00803DAB23B691A7703E04FF0E8
S214004810FF331BE000BF3B69002B02D14FF0FF3394
S21400482014E038694FF00001FFF7BEF803467B61DD
S2140048307B69B3F1FF3F05D13869FCF7BDFA4FF04D
S214004840FF3303E03B697A699A617B69184607F192
S2140048501807BD4680BD00BF80B584B000AFF860C5
S214004860B9607A60F868B9687A684FF00003FFF7B5
S21400487051FE0346184607F11007BD4680BD00BF2F
S21400488080B58EB000AFF860B9607A603B604FF0DC
S21400489000037B6207F11C0318464FF000014FF03F
S2140048A0010212F0B1FE07F1180318464FF000019E
S2140048B04FF0010212F0A8FE07F1140318464FF05D
S2140048C000014FF0010212F09FFE4FF000033B6222
S2140048D0E7E04FF00003FB624FF000037B864FF0EB
S2140048E00003BB864FF00003FB86386AFFF72AF802
S2140048F00346BB62BB6A002B0BD0BB6A5B68FB62DD
S214004900BB6A5B897B86BB6A9B89BB86BB6ADB8985
S214004910FB86BB68002B40D03B6A03F10702002BE6
S214004920B8BF13464FEAE303BA68D35C1A463B6A3D
S21400493003F0070342FA03F303F00103DBB2002B94
S2140049402BD0FB6A002B03D1B7F93230002B24DDC5
S2140049503B6A03F10702002BB8BF13464FEAE30396
S214004960194607F13800034413F81C3C1A463B6A04
S21400497003F007034FF0010000FA03F3DBB242EA4C
S2140049800303DBB2DAB207F1380000EB010303F8E9
S2140049901C2C7B6A03F101037B627B68002B3CD0F6
S2140049A03B6A03F10702002BB8BF13464FEAE30346
S2140049B07A68D35C1A463B6A03F0070342FA03F3AD
S2140049C003F00103DBB2002B27D0BB8E002B24D0D4
S2140049D03B6A03F10702002BB8BF13464FEAE30316
S2140049E0194607F13802134413F8203C1A463B6A6E
S2140049F003F007034FF0010000FA03F3DBB242EACC
S214004A000303DBB2DAB207F1380000EB010303F868
S214004A10202C7B6A03F101037B623B68002B3CD0B1
S214004A203B6A03F10702002BB8BF13464FEAE303C5
S214004A303A68D35C1A463B6A03F0070342FA03F36C
S214004A4003F00103DBB2002B27D0FB8E002B24D013
S214004A503B6A03F10702002BB8BF13464FEAE30395
S214004A60194607F13802134413F8243C1A463B6AE9
S214004A7003F007034FF0010000FA03F3DBB242EA4B
S214004A800303DBB2DAB207F1380000EB010303F8E8
S214004A90242C7B6A03F101037B623B6A03F101036A
S214004AA03B623A6AFB689A42FFF613AF3B6C3A7F6A
S214004AB01A707B6C3A7E1A70BB6C3A7D1A707B6AF1
S214004AC0002B0FDA44F2B830C0F2020044F2345140
S214004AD0C0F202014FF4876244F2F033C0F20203E0
S214004AE0FBF722FC7B6A184607F13807BD4680BDF7
S214004AF080B59AB004AFF860B9607A603B604FF05A
S214004B000003FB6307F13803009307F134030193B6
S214004B1007F130030293F868B9687A683B68FFF7D4
S214004B20AFFE03463B643B6C002B40F013823B6EAB
S214004B30002B08D03B6E1B68002B04D13B6E5B68D5
S214004B40002B00F004824FF000037B614FF000035F
S214004B50BB61BB68FB617B683B623B687B624FF076
S214004B600003BB6207F1140303F1180318464FF065
S214004B700001FBF7C5FC0346DBB287F84B3097F91C
S214004B804B30002B02D04FF0FF33F9E140F2A05338
S214004B90C1F6FF731B687B6140F2A053C1F6FF733A
S214004BA01B68002B07D040F2A053C1F6FF731B68AA
S214004BB007F114025A6040F2A053C1F6FF7307F1E2
S214004BC014021A6040F2A453C1F6FF731B6803F187
S214004BD0010240F2A453C1F6FF731A604FF00003BF
S214004BE0FB647DE0BB68002B14D0FB6C03F107026E
S214004BF0002BB8BF13464FEAE303BA68D35C1A46E5
S214004C00FB6C03F0070342FA03F303F00103DBB285
S214004C10002B2FD17B68002B14D0FB6C03F107020E
S214004C20002BB8BF13464FEAE3037A68D35C1A46F4
S214004C30FB6C03F0070342FA03F303F00103DBB255
S214004C40002B17D13B68002B46D0FB6C03F1070204
S214004C50002BB8BF13464FEAE3033A68D35C1A4604
S214004C60FB6C03F0070342FA03F303F00103DBB225
S214004C70002B31D0F86CFEF765FE03463B653B6DB6
S214004C80002B0FD144F2B830C0F2020044F240517B
S214004C90C0F2020140F2854244F2F033C0F2020351
S214004CA0FBF742FB3B6D5B6903F101023B6D5A610A
S214004CB03B6D5B69002B0FDC44F2B830C0F202009B
S214004CC044F25051C0F202014FF4916244F2F033C4
S214004CD0C0F20203FBF728FBFB6C03F10103FB6445
S214004CE0FA6CFB689A42FFF67DAF07F13803009333
S214004CF007F13403019307F130030293F868B968AB
S214004D007A683B68FFF7BCFD03463B643B6C002BB0
S214004D102ED13B6E002B03D14FF000037B641DE0C9
S214004D203B6E1B684FF47A7202FB03F13B6E5B68C6
S214004D3003F5FA7244F6D353C1F2620383FB02030F
S214004D404FEAA3104FEAE273C3EB00030B447B6405
S214004D507B6C002B02D14FF001037B6407F1140338
S214004D6003F118031846796CFBF786FC0346FB63D1
S214004D704FF00003FB647DE0BB68002B14D0FB6C97
S214004D8003F10702002BB8BF13464FEAE303BA68E5
S214004D90D35C1A46FB6C03F0070342FA03F303F0F6
S214004DA00103DBB2002B2FD17B68002B14D0FB6CE9
S214004DB003F10702002BB8BF13464FEAE3037A68F5
S214004DC0D35C1A46FB6C03F0070342FA03F303F0C6
S214004DD00103DBB2002B17D13B68002B46D0FB6CDF
S214004DE003F10702002BB8BF13464FEAE3033A6805
S214004DF0D35C1A46FB6C03F0070342FA03F303F096
S214004E000103DBB2002B31D0F86CFEF79BFD0346A6
S214004E107B657B6D002B0FD144F2B830C0F20200E8
S214004E2044F24051C0F2020140F2A54244F2F0338F
S214004E30C0F20203FBF778FA7B6D5B6903F1FF3281
S214004E407B6D5A617B6D5B69002B0FDA44F2B830DC
S214004E50C0F2020044F26C51C0F202014FF49562B7
S214004E6044F2F033C0F20203FBF75EFAFB6C03F188
S214004E700103FB64FA6CFB689A42FFF67DAF7B6920
S214004E80002B02D07B69BA695A6040F2A053C1F683
S214004E90FF731B6807F114029A4219D1BB69002BF5
S214004EA00FD044F2B830C0F2020044F28851C0F28B
S214004EB0020140F2B24244F2F033C0F20203FBF7C2
S214004EC033FA7A6940F2A053C1F6FF731A6015E010
S214004ED0BB69002B0FD144F2B830C0F2020044F296
S214004EE0A051C0F2020140F2B54244F2F033C0F2E3
S214004EF00203FBF719FABB697A691A6040F2A453F9
S214004F00C1F6FF731B6803F1010240F2A453C1F619
S214004F10FF731A6007F1140303F118031846FBF732
S214004F2067FBFB6BB3F1FF3F13D007F13803009329
S214004F3007F13403019307F130030293F868B96868
S214004F407A683B68FFF79CFC03463B6402E000BFC0
S214004F5000E000BFBB68002B03D0BB6897F8382082
S214004F601A707B68002B03D07B6897F834201A7081
S214004F703B68002B03D03B6897F830201A703B6CD8
S214004F80184607F15807BD4680BD00BF80B588B0FB
S214004F9000AF786013460A46FA703B807B68002BA9
S214004FA000F004817B689B69FB60FB68002B11DACC
S214004FB07B689B69002B0ADAFB78002B40F0F880B0
S214004FC07B689B6903F1FF327B689A61F5E07B683A
S214004FD09B69FB60F868FEF78BFC03463B613B6908
S214004FE0002B00F0E780FB78042B2CD801A252F8A7
S214004FF023F000BF0950000019500000295000009F
S214005000335000003D5000003B695B8903F101030B
S2140050109AB23B695A8126E03B695B8903F1FF330C
S2140050209AB23B695A811EE03B694FF001029A81B1
S21400503019E03B694FF000029A8114E03B694FF09B
S2140050400102DA810FE044F2B830C0F2020044F206
S214005050B851C0F2020140F2195244F2F033C0F2E5
S2140050600203FBF761F93B695B69002B00F0A48043
S21400507000E000BF40F2A053C1F6FF731B687B61DF
S2140050808FE07B695B69002B79D14FF00003FB61F1
S2140050903B695B891BB2002B1CDD7B699B68002B80
S2140050A018D07B699A68FB6803F10701002BB8BF2C
S2140050B00B464FEAE303D35C1A46FB6803F007038C
S2140050C042FA03F303F00103DBB2002B02D04FF0E9
S2140050D00103FB613B699B89002B1FD0FB69002BFA
S2140050E01CD17B69DB68002B18D07B69DA68FB680B
S2140050F003F10701002BB8BF0B464FEAE303D35C6E
S2140051001A46FB6803F0070342FA03F303F00103B1
S214005110DBB2002B02D04FF00103FB613B69DB8959
S214005120002B1FD0FB69002B1CD17B691B69002B51
S21400513018D07B691A69FB6803F10701002BB8BF1A
S2140051400B464FEAE303D35C1A46FB6803F00703FB
S21400515042FA03F303F00103DBB2002B02D04FF058
S2140051600103FB61FB69002B09D07B694FF001024C
S2140051705A617B6903F118031846FBF75BFA40F2A5
S214005180A453C1F6FF731B68BB6140F2A453C1F67B
S214005190FF731B68BA699A427FF46BAF7B691B6822
S2140051A07B617B69002B7FF46CAF06E000BF04E0F8
S2140051B000BF02E000BF00E000BF07F12007BD46C9
S2140051C080BD00BF80B584B000AF786039604FF016
S2140051D00003BB734FF00003FB737868FEF788FB91
S2140051E00346BB60BB68002B02D14FF0FF3360E084
S2140051F0BB681B68002B0FD0BB681B681B78102B86
S21400520006D0BB684FF05F021A614FF05F0350E0B4
S2140052103B68002B07D00AE0BB684FF06B021A61B0
S2140052204FF06B0345E04FF00103BB7317E03B689C
S214005230012B03D14FF00103FB7310E03B68022BF8
S21400524006D14FF00103BB734FF00103FB7306E07A
S214005250BB684FF016021A614FF0160329E0BB68D0
S2140052601968BA7BFB7B084611461A46FCF7ECFA2F
S2140052700346DBB27B7397F90D30C3F100030F2BA7
S2140052800AD897F90D30C3F1000244F27833C0F221
S214005290020353F8223001E04FF00503BA681361A9
S2140052A097F90D30002B02D14FF0000301E04FF0CC
S2140052B0FF33184607F11007BD4680BD80B58AB09B
S2140052C000AFF860B9607A60FB70F868FEF710FB14
S2140052D003467B627B6A002B02D14FF0FF3338E037
S2140052E007F1140318464FF000014FF0100212F0B9
S2140052F08BF94FF010033B754FF002037B757B6A0A
S214005300186807F1100107F1140303F10202FB7895
S214005310FBF774FDFB8A184600F066FF0346FB8227
S2140053203B69BB617B681B68102B03D97B684FF019
S21400533010021A607B681B6807F11402B8681146F1
S2140053401A4612F099F87B6A4FF000021A614FF085
S2140053500003184607F12807BD4680BD80B584B017
S21400536000AFF860B9607A60F868B9687A684FF09C
S2140053700003FFF7A3FF0346184607F11007BD46D4
S21400538080BD00BF80B584B000AFF860B9607A60B9
S214005390F868B9687A684FF00103FFF78FFF034695
S2140053A0184607F11007BD4680BD00BF80B58CB01B
S2140053B000AFF860B9607A603B604FF0000387F892
S2140053C02B30F868FEF794FA0346FB62FB6A002B64
S2140053D002D14FF0FF33C9E03B68002B02D0BB6B15
S2140053E0002B06D1FB6A4FF00E021A614FF0FF3316
S2140053F0BCE0BB68062B5AD040F6FF72934202D040
S214005400002B40D070E07B68202B13D0202B04DCD0
S214005410022B0FD0082B0DD02FE041F2070293424B
S2140054202BDB41F20802934204DD41F20A0293426A
S21400543009D022E0BB6B1B68032B03D84FF0160382
S21400544087F82B301EE0BB6B1B68032B03D84FF08E
S214005450160387F82B30FB6A1B681B78202B07D1B6
S214005460FB6A1B685B681B7C03F00203002B03D0FF
S2140054704FF0610387F82B3004E04FF05C0387F8A9
S2140054802B3035E034E07B6803F1FF33012B09D87D
S214005490BB6B1B68032B03D84FF0160387F82B3023
S2140054A000BF25E04FF05C0387F82B3020E0BB6B95
S2140054B01B68032B04D84FF0160387F82B3017E031
S2140054C0FB6A1B681B78102B02D04FF000034DE0E0
S2140054D07B6803F1FF33012B01D800BF08E04FF0D3
S2140054E05C0387F82B3003E04FF05C0387F82B3023
S2140054F097F92B30002B06D097F92B20FB6A1A6100
S2140055004FF0FF3332E0FB6A3B61BB687B617B6830
S214005510BB613B68FB61BB6B3B6297F82B3087F83F
S214005520243007F1100345F27950C0F20000194606
S2140055304FF0010200F0A4FCFB6A1B6803F10C03A9
S21400554018464FF00001FBF797F897F8243087F8D5
S2140055502B3097F92B20FB6A1A6197F92B30002B1A
S21400556002D04FF0FF3301E04FF00003184607F17A
S2140055703007BD4680BD00BF80B588B000AF7860FC
S2140055807B68002B0FD144F2B830C0F2020044F220
S214005590C851C0F2020140F2816244F2F033C0F218
S2140055A00203FAF7C1FE7B68FB61FB691B68FB60C0
S2140055B0FB695B683B61FB699B687B61FB69DB6839
S2140055C0BB613B69062B00F0B58040F6FF72934244
S2140055D003D0002B00F08980D9E07B69202B13D004
S2140055E0202B04DC022B0FD0082B0DD06BE041F2F1
S2140055F00802934213D041F20A0293425AD041F273
S214005600070293422CD05EE0BB69FA6812685268C3
S214005610127A11467A6901EA02021A6064E0FB68AF
S2140056201B681B7803F0F003202B0ED0402B02D013
S214005630102B05D00EE0BB694FF003021A600EE097
S214005640BB694FF001021A6009E0BB694FF0020225
S2140056501A6004E0BB69FA68126812781A6043E0C0
S214005660FB681B69002B03D0FB681B69732B18D1E2
S214005670FB681B681B7A5BB2C3F100030F2B0CD8C8
S214005680FB681B681B7A5BB2C3F1000244F27833F6
S214005690C0F2020353F8223001E04FF00503FA6827
S2140056A01361BB69FA6812691A60FB684FF0000262
S2140056B01A6119E0BB69FA6812685268127C02F037
S2140056C001021A6010E044F2B830C0F2020044F260
S2140056D0D451C0F202014FF4DB6244F2F033C0F260
S2140056E00203FAF721FE62E061E07B69012B08D035
S2140056F0022B0DD1BB69FA6812685268927A1A605A
S21400570017E0BB69FA6812685268527A1A6010E0AD
S21400571044F2B830C0F2020044F2D451C0F20201A2
S2140057204FF4E06244F2F033C0F20203FAF7FCFDF5
S2140057303DE03CE07B69012B02D0022B0DD014E04B
S214005740BB69FA6812685268927F02F04002002A2B
S2140057500CBF002201221A6018E0BB69FA681268C2
S2140057605268D2F890201A6010E044F2B830C0F2C6
S214005770020044F2D451C0F2020140F2267244F212
S214005780F033C0F20203FAF7CFFD10E00FE044F268
S214005790B830C0F2020044F2E851C0F202014FF401
S2140057A0E86244F2F033C0F20203FAF7BDFDFB688C
S2140057B01B6803F10C031846FAF73CFF07F12007B5
S2140057C0BD4680BD80B58CB000AFF860B9607A6029
S2140057D03B60F868FEF78CF80346BB624FF00003A8
S2140057E087F82F30BB6A002B02D14FF0FF33B5E0AD
S2140057F03B68002B06D1BB6A4FF00E021A614FF0D1
S214005800FF33ABE0BB68062B49D040F6FF729342ED
S21400581002D0002B30D05EE07B68202B05D041F212
S2140058200A02934209D0082B20D1BB6B032B03D866
S2140058304FF0160387F82F301DE0BB6B032B03D801
S2140058404FF0160387F82F30BB6A1B681B78202B97
S21400585007D1BB6A1B685B681B7C03F00203002B46
S21400586003D04FF0610387F82F3004E04FF05C035D
S21400587087F82F3033E032E07B6803F1FF33012BEB
S21400588008D8BB6B032B03D84FF0160387F82F30CE
S21400589000BF24E04FF05C0387F82F301FE0BB6B9F
S2140058A0032B04D84FF0160387F82F3017E0BB6A97
S2140058B01B681B78102B02D04FF000034EE07B686D
S2140058C003F1FF33012B01D800BF08E04FF05C0363
