S00B00006173702E73726563D5
S2140000001867FF1F01010000A5D30100A5D301005A
S214000010A5D30100A5D30100A5D30100A5D30100F7
S214000020A5D30100A5D30100A5D30100FDD401008E
S214000030A5D30100A5D30100A5D301002FD401004C
S2140000402FD401002FD401002FD401002FD401009B
S2140000502FD401002FD401002FD401002FD401008B
S2140000602FD401002FD401002FD401002FD401007B
S2140000702FD401002FD401002FD401002FD401006B
S2140000802FD401002FD401002FD401002FD401005B
S2140000902FD401002FD401002FD401002FD401004B
S2140000A02FD401002FD401002FD401002FD401003B
S2140000B02FD401002FD401002FD401002FD401002B
S2140000C02FD401002FD401002FD401002FD401001B
S2140000D02FD401002FD401002FD401002FD401000B
S2140000E02FD401002FD401002FD401002FD40100FB
S2140000F02FD401002FD401002FD401002FD40100EB
S21400010071B64FF0000080F31488BFF36F8F12486B
S214000110016881F30888114800B180474FF000005D
S2140001200F49104A914204D2086001F1040191423D
S214000130FAD30D490D4A914208D20D4B0868186053
S21400014001F1040103F104039142F7D3094800B119
S21400015080471DF06BFFFEE7008B020000000000EA
S2140001604005FF1F8803002090930200CC980200F1
S2140001700000FF1F0000000080B588B002AF786066
S21400018007F110037868194600F080FF0346DBB2DB
S214000190FB7597F91730002B44D1396907F10C022B
S2140001A007F10A03084611461A4603F029F97B8927
S2140001B0042B37D9FB681B78472B33D1FB6803F138
S2140001C001031B78452B2DD1FB6803F102031B7836
S2140001D0542B27D1FB6803F103031B78202B21D176
S2140001E0FB6803F104031B782F2B1BD14FF0000391
S2140001F00093786845F21011C0F202014FF02C020D
S2140002004FF0010301F084F84FF000030093786884
S21400021045F24011C0F202014FF0A3024FF0010375
S21400022001F076F8786801F045F93B69184602F067
S214000230A7FF07F11807BD4680BD00BF80B586B092
S21400024000AF78604FF010004FF000014FF0000252
S21400025000F06CFB03463B613B69002B10D145F276
S214000260E410C0F2020045F20C21C0F202014FF089
S2140002704E0245F22823C0F2020300F055F82AE0A9
S21400028038694FF000014FF0500200F071FC3869F9
S2140002904FF0FF0100F030FD07F10C0338691946F6
S2140002A000F068FD0346DBB2FB7597F91730002BAC
S2140002B007D1FB681846FFF75FFFFB68184600F09B
S2140002C0C3FB97F91730002BE6D0386901F0F2F837
S2140002D0386900F0B9FB07F11807BD4680BD00BFBE
S2140002E080B582B002AF4FF00203009345F2502073
S2140002F0C0F2020040F23D21C0F200014FF00002C1
S2140003004FF4805300F0AEFABD4680BD80B500AF16
S2140003104FF0010016F0D2FC4FF001004FF4A2613E
S21400032017F068F880BD00BF0FB480B5C2B000AF4C
S2140003304FF0070020F0E6FD07F58A7207F1040388
S2140003401A6007F1080207F104031046D7F81011E7
S2140003501A6818F061FA07F10803184618F012FA3E
S214000360034607F108024FF0010011461A4616F040
S2140003707FFE4FF0070020F0E3FC07F58477BD46CC
S214000380BDE8804004B0704780B596B004AF786092
S21400039040F6B83020F0E2F9FFF7B8FF4FF0000063
S2140003A04FF0000105F0EAFC4AF6C003C9F201630B
S2140003B07B646FF07F433B644AF6C003C0F20113D0
S2140003C0FB6307F10C0007F1440107F1400207F157
S2140003D03C0C4FF00003009343F2ED43C0F20103E0
S2140003E0019345F69123C0F200030293634606F09C
S2140003F0E3FC07F10C03184606F06EFE07F10C034B
S214000400184606F079FEFFF76BFF4FF0090020F064
S21400041079FD07F10C03184613F02AF8F5E700BF3C
S21400042080B400AFBD4680BC704700BF80B588B0C2
S21400043000AF78600B46FB706FF00503FB7645F265
S2140004406420C0F20200FFF76FFF7B68002B2DD000
S214000450FB784FF00102FA603B614FF001037B61CD
S21400046007F10C03184620F085FB0346FB61FB6989
S214000470002B11DD7B68FA691A604FF00003FB76EB
S2140004807B681A68FB7845F27420C0F202001146B9
S2140004901A46FFF749FF09E07B684FF000021A6032
S2140004A045F28C20C0F20200FFF73EFFFB7E5BB2F7
S2140004B0184607F12007BD4680BD00BF80B582B054
S2140004C000AF78607B681B6845F2A420C0F202008B
S2140004D01946FFF729FF7B681B68184620F0BCFB0F
S2140004E07B684FF000021A6045F2B820C0F20200A6
S2140004F0FFF71AFF07F10807BD4680BD80B582B03A
S21400050000AF78607B681B6845F2CC20C0F2020022
S2140005101946FFF709FF7B681B68184620F010FC99
S2140005207B681B6845F2E420C0F202001946FFF71C
S214000530FBFE07F10807BD4680BD00BF80B586B04C
S21400054000AF7860396007F11003184621F0C8FF45
S2140005507B681B6845F2FC20C0F202001946FFF7D4
S214000560E3FE3B68002B09D07B681A683B681046A0
S214000570194620F083FD03467B6106E07B681B6816
S214000580184620F0BFFC03467B617B69002B12D126
S21400059007F10C03184621F0A3FF7B681B6845F2A1
S2140005A01830C0F202001946FFF7BEFEFA683B6933
S2140005B0C3EB02030AE07B681B6845F23830C0F2E2
S2140005C002001946FFF7B0FE4FF0FF33184607F15A
S2140005D01807BD4680BD00BF80B588B000AF786004
S2140005E039606FF00503FB7645F26430C0F2020016
S2140005F0FFF79AFE7B68002B2CD03B684FF000027A
S214000600FA603B614FF000037B6107F10C0318466C
S21400061021F02EF80346FB61FB69002B10DD7B689A
S214000620FA691A604FF00003FB767B681B6845F298
S2140006307830C0F2020019463A68FFF775FE09E006
S2140006407B684FF000021A6045F29430C0F2020058
S214000650FFF76AFEFB7E5BB2184607F12007BD4631
S21400066080BD00BF80B582B000AF78607B681B6835
S21400067045F2B030C0F202001946FFF755FE7B681F
S2140006801B68184621F084F87B684FF000021A6059
S21400069045F2C830C0F20200FFF746FE07F1080731
S2140006A0BD4680BD80B582B000AF786039607B689B
S2140006B01B6845F2DC30C0F2020019463A68FFF7C4
S2140006C033FE7B681A683B681046194621F038FAF4
S2140006D07B681B6845F2FC30C0F2020019463A6897
S2140006E0FFF722FE07F10807BD4680BD80B584B03F
S2140006F000AF786039606FF00503FB737B681B689A
S21400070045F21C40C0F2020019463A68FFF70CFE9C
S2140007107B681A683B681046194621F079FA03464A
S214000720002B02D14FF00003FB737B681A6897F921
S2140007300F3045F23C40C0F2020011463A68FFF71F
S214000740F3FDFB7B5BB2184607F11007BD4680BD84
S21400075080B588B000AFF860B9607A6007F118031A
S214000760184621F0BDFEFB681B6845F26040C0F2EB
S21400077002001946FFF7D8FD7B68002B0BD0FB68FC
S2140007801968BA687B68084611461A4621F0C4FC08
S2140007900346FB6108E0FB681A68BB68104619460A
S2140007A021F0F4FB0346FB61FB69002B12D107F135
S2140007B01403184621F094FEFB681B6845F27C4043
S2140007C0C0F202001946FFF7AFFD7A69BB69C3EBBA
S2140007D002030AE0FB681B6845F2A040C0F2020074
S2140007E01946FFF7A1FD4FF0FF33184607F1200723
S2140007F0BD4680BD80B582B000AF786039607B684A
S2140008001B6845F2D040C0F202001946FFF78CFD87
S2140008107B681A683B681046194621F02FFC034691
S214000820002B0ED17B681A683B681B6845F2F040C7
S214000830C0F2020011461A46FFF776FD4FF000039D
S2140008400AE07B681B6845F22050C0F20200194699
S214000850FFF76AFD4FF0FF33184607F10807BD465D
S21400086080BD00BF80B58EB002AFF860B9607A6018
S2140008703B6045F25050C0F20200FFF755FD796824
S214000880BA683B684FF002007861B961FA61BA6BEA
S2140008903A627B624FF00003BB6207F1140318460E
S2140008A01EF064FE0346FB62FB6A009345F264504A
S2140008B0C0F20200F9683A68BB6BFFF735FDFB6AC9
S2140008C0184607F13007BD4680BD00BF80B582B030
S2140008D000AF22F0E7F803467B607B68002B01D16F
S2140008E021F0F0FF7B686FEA0303184607F108075C
S2140008F0BD4680BD80B582B000AF78607B68002BB7
S21400090001D022F017F807F10807BD4680BD00BFEA
S21400091080B582B000AF07F10403184621F0E0FD71
S2140009207B68184607F10807BD4680BD80B58AB0CB
S21400093000AF0B463A600246FA71BB71FB79184667
S214000940396801F04DFA03467B627B6A002B75D04E
S21400095041F6A953C0F20003FB60BB793B767B6A85
S2140009603B6107F10C03184605F08CF90346DBB231
S214000970002B63D07B6A5B68002B0FD045F2845057
S214000980C0F2020045F2AC51C0F202014FF04F0235
S21400099045F2D053C0F20203FFF7C6FC7B6ADB6861
S2140009A0002B0FD145F28450C0F2020045F2F05100
S2140009B0C0F202014FF0500245F2D053C0F20203DB
S2140009C0FFF7B2FC7B6A1B69002B0FD145F28450FF
S2140009D0C0F2020045F20C61C0F202014FF0510273
S2140009E045F2D053C0F20203FFF79EFC7B6A5B69B8
S2140009F0002B0FD045F28450C0F2020045F224616D
S214000A00C0F202014FF0530245F2D053C0F2020387
S214000A10FFF78AFC7B6A03F10C031846FFF74EFDCE
S214000A207B6A03F110031846FFF71CFE4FF0080020
S214000A30796A06F063F94FF0000300E07B6A184617
S214000A4007F12807BD4680BD80B588B000AF786046
S214000A507B68002B02D14FF0000310E042F22D33EA
S214000A60C0F20003BB607B68FB6007F10803184612
S214000A7005F008F9786801F01BFA4FF000035BB246
S214000A80184607F12007BD4680BD00BF80B58CB074
S214000A9000AFF860B9607A60FB70FB68002B12D17B
S214000AA045F28450C0F2020045F24861C0F20201ED
S214000AB04FF08C0245F2D053C0F20203FFF734FC2D
S214000AC04FF0F2034EE0BB68002B12D145F2845083
S214000AD0C0F2020045F26861C0F202014FF08D02DA
S214000AE045F2D053C0F20203FFF71EFC4FF0F203AC
S214000AF038E07B68002B12D145F28450C0F2020029
S214000B0045F28861C0F202014FF08E0245F2D053E2
S214000B10C0F20203FFF708FC4FF0F20322E042F6B1
S214000B201173C0F200037B61FB68BB61BB683B626C
S214000B307B687B62FB7887F8283007F11403184639
S214000B4005F0A0F80346DBB287F82F30FB681B7A67
S214000B505BB213F1090F03DBFB6897F82F201A72BC
S214000B6097F82F305BB2184607F13007BD4680BDB8
S214000B7080B58CB000AFF860B9601346FB80FB68A8
S214000B80002B12D145F28450C0F2020045F2A86153
S214000B90C0F202014FF0AB0245F2D053C0F202039E
S214000BA0FFF7C2FB4FF0F2031FE042F2D943C0F258
S214000BB000037B61FB68BB61BB683B62FB88BB8450
S214000BC007F11403184605F05DF80346DBB287F814
S214000BD02F30FB681B7A5BB213F1090F03DBFB684F
S214000BE097F82F201A7297F82F305BB2184607F145
S214000BF03007BD4680BD00BF80B58CB000AFF86042
S214000C00B9601346FB80FB68002B12D145F2845076
S214000C10C0F2020045F2C461C0F202014FF0C50204
S214000C2045F2D053C0F20203FFF77EFB4FF0F2030B
S214000C301FE042F2BD63C0F200037B61FB68BB614C
S214000C40BB683B62FB88BB8407F11403184605F0BB
S214000C5019F80346DBB287F82F30FB681B7A5BB2C5
S214000C6013F1090F03DBFB6897F82F201A7297F829
S214000C702F305BB2184607F13007BD4680BD00BF77
S214000C8080B58AB000AF78607B68002B12D145F241
S214000C908450C0F2020045F2E461C0F202014FF057
S214000CA0DE0245F2D053C0F20203FFF73DFB4FF0E1
S214000CB0F2031BE042F62103C0F20003FB607B68F0
S214000CC03B6107F10C03184604F0DCFF0346DBB279
S214000CD087F827307B681B7A5BB213F1090F03DBBA
S214000CE07B6897F827201A7297F827305BB2184669
S214000CF007F12807BD4680BD80B58AB000AF786092
S214000D000B46FB707B68002B12D145F28450C0F274
S214000D10020045F20871C0F202014FF0FA0245F2F5
S214000D20D053C0F20203FFF7FFFA4FF0F2031BE0C6
S214000D3042F66D03C0F20003FB607B683B6107F17F
S214000D400C03184604F09EFF0346DBB287F82730F4
S214000D507B681B7A5BB213F1090F03DB7B6897F89D
S214000D6027201A7297F827305BB2184607F1280733
S214000D70BD4680BD80B584B000AF786039603B6802
S214000D80002B12D145F28450C0F2020045F22871C1
S214000D90C0F202014FF48F7245F2D053C0F2020344
S214000DA0FFF7C2FA4FF0F20366E03B684FF000022E
S214000DB01A607B68002B12D145F28450C0F2020004
S214000DC045F24871C0F202014FF4907245F2D053DA
S214000DD0C0F20203FFF7A8FA4FF0F2034CE07B687C
S214000DE05B69002B12D145F28450C0F2020045F236
S214000DF06871C0F2020140F2211245F2D053C0F2EF
S214000E000203FFF791FA4FF0F20335E07B681B7A96
S214000E10FB7397F90F3013F1090F01DAFB7B2BE018
S214000E207B6803F1140207F10803104619464FF0D9
S214000E300002FFF78DFC7B689B6A002B07D07B685F
S214000E409B6A78684FF001014FF000029847BB6834
S214000E50002B0CD17B681B7A5BB213F1090F03DB06
S214000E607B686FF009021A724FF0F60304E0BA6866
S214000E703B681A604FF000035BB2184607F1100794
S214000E80BD4680BD80B58AB000AF786039604FF04F
S214000E9000033B623B68002B12D145F28450C0F23F
S214000EA0020045F28C71C0F2020140F25F1245F278
S214000EB0D053C0F20203FFF737FA4FF0F203B1E067
S214000EC03B684FF000021A607B68002B12D145F297
S214000ED08450C0F2020045F2AC71C0F2020140F24A
S214000EE0611245F2D053C0F20203FFF71DFA4FF02D
S214000EF0F20397E07B681B69002B12D145F2845001
S214000F00C0F2020045F2C871C0F202014FF4B1729D
S214000F1045F2D053C0F20203FFF706FA4FF0F30390
S214000F2080E07B681B7A87F8273097F9273013F123
S214000F30090F02DA97F8273074E07B6803F1100295
S214000F4007F12003104619464FF00002FFF700FC99
S214000F507B681B78102B3ED17B681B7F03F0080351
S214000F60002B02D03B6A002B15D142F6B123C0F20B
S214000F700003BB607B68FB603B6A002B03D03B6AC8
S214000F801B897B6102E04FF001037B6107F10803D8
S214000F90184604F077FE3B6A002B18D17B689B6AE4
S214000FA0002B07D07B689B6A78684FF001014FF0F2
S214000FB0000298477B681B7A5BB213F1090F03DBCC
S214000FC07B686FF00B021A724FF0F4032AE03B6A5C
S214000FD01B89BB8416E03B6A002B0FD145F2845078
S214000FE0C0F2020045F2EC71C0F2020140F2991222
S214000FF045F2D053C0F20203FFF796F93B6A1B682E
S2140010001B89BB847B689B6A002B06D07B689B6A27
S214001010BA8C78684FF0010198473A6A3B681A60C4
S2140010204FF000035BB2184607F12807BD4680BDA7
S21400103080B582B000AF786039607B68002B03D043
S2140010407B681B78102B12D045F28450C0F2020049
S21400105045F2AC71C0F202014FF4DC7245F2D05397
S214001060C0F20203FFF760F94FF0F20307E03B68B7
S21400107078681946FFF706FF0346DBB2DBB25BB2C1
S214001080184607F10807BD4680BD00BF80B586B08C
S21400109000AF786039604FF000033B613B68002B7F
S2140010A012D145F28450C0F2020045F28C71C0F2B3
S2140010B0020140F2CD1245F2D053C0F20203FFF710
S2140010C033F94FF0F20390E03B684FF000021A60ED
S2140010D07B68002B12D145F28450C0F2020045F224
S2140010E0AC71C0F2020140F2CF1245F2D053C0F20A
S2140010F00203FFF719F94FF0F20376E07B681B69ED
S214001100002B12D145F28450C0F2020045F2C8719D
S214001110C0F202014FF4E87245F2D053C0F2020367
S214001120FFF702F94FF0F3035FE07B681B78102BA4
S21400113053D14FF00003FB604FF0070005F010FDA1
S21400114003463B613B69002B0CD17B681B7A5BB284
S21400115013F1090F03DB7B684FF0FF321A724FF072
S214001160FF0342E007F10C0378681946FFF78AFE92
S2140011700346DBB2FB7597F91730002B06D04FF00D
S2140011800700396905F0BAFDFB7D2EE0FB68002BF1
S2140011900FD145F28450C0F2020045F2F871C0F259
S2140011A0020140F2E51245F2D053C0F20203FFF707
S2140011B0BBF8FA683B691A60FA683B695A603B6993
S2140011C04FF000029A813B694FF000029A603B683C
S2140011D03A691A604FF0000307E03B6878681946E2
S2140011E0FFF750FE0346DBB2DBB25BB2184607F1F0
S2140011F01807BD4680BD00BF80B588B000AF7860D8
S21400120039607B68002B17D07B681B78102B13D1B6
S2140012107B681B7F03F00803002B0DD042F6B1233A
S214001220C0F20003BB607B68FB603B687B6107F134
S2140012300803184604F026FD07F12007BD4680BDCA
S21400124080B584B000AFF860B9607A607B80BB6818
S214001250002B14D07B68002B02D07B681B6801E053
S2140012604FF00003BA689360BB687A889A81F86882
S214001270B96800F00DF80346DBB2DBB201E04FF0D0
S214001280FA035BB2184607F11007BD4680BD00BFE3
S21400129080B58AB000AF786039607B68002B12D1C9
S2140012A045F28450C0F2020045F60401C0F2020185
S2140012B04FF40F7245F2D053C0F20203FFF734F832
S2140012C04FF0F2031DE042F69D13C0F20003FB60F0
S2140012D07B683B613B68BB6107F10C03184604F072
S2140012E0D1FC0346DBB287F827307B681B7A5BB2FB
S2140012F013F1090F03DB7B6897F827201A7297F81B
S21400130027305BB2184607F12807BD4680BD00BFF0
S21400131080B58CB000AFF860B9607A60FB70FB688F
S214001320002B12D145F28450C0F2020045F620018F
S214001330C0F2020140F25D2245F2D053C0F2020331
S214001340FEF7F2FF4FF0F2036DE0FB681B78102B00
S21400135012D045F28450C0F2020045F63C01C0F2BD
S214001360020140F25E2245F2D053C0F20203FEF7BD
S214001370DBFF4FF0FA0356E07B68002B02D14FF0FC
S214001380000350E0FB681B7F03F00203002B04D130
S214001390FB7803F00403002B02D04FF0010301E0BA
S2140013A04FF0000387F82F3097F82F30002B05D02A
S2140013B0BB6B002B02D14FF0FA0334E042F6196300
S2140013C0C0F200037B61FB68BB61BB683B62FB78D5
S2140013D087F828307B687B6207F11403184604F010
S2140013E051FC0346DBB287F82E3097F92E30002BDF
S2140013F00DD1BB6B002B0AD097F82F30002B03D0F3
S2140014007A6ABB6B1A6002E0BB6B7A681A60FB688C
S2140014101B7A5BB213F1090F03DBFB6897F82E20EB
S2140014201A7297F82E305BB2184607F13007BD46A1
S21400143080BD00BF80B58AB000AF78600B46FB70F9
S2140014407B68002B12D145F28450C0F2020045F6AC
S2140014506001C0F202014FF4277245F2D053C0F289
S2140014600203FEF761FF4FF0F2031DE043F22D0387
S214001470C0F20003FB607B683B61FB783B7607F1BC
S2140014800C03184604F0FEFB0346DBB287F8273051
S2140014907B681B7A5BB213F1090F03DB7B6897F856
S2140014A027201A7297F827305BB2184607F12807EC
S2140014B0BD4680BD80B582B000AF786078684FF0DA
S2140014C00301FFF7B7FF0346DBB2DBB25BB2184699
S2140014D007F10807BD4680BD80B582B000AF7860D2
S2140014E013460A46FA70BB70FB78002B0CBF00222E
S2140014F00122BB78002B02D04FF0020301E04FF030
S214001500000342EA0303DBB2DBB278681946FFF752
S21400151091FF0346DBB2DBB25BB2184607F1080761
S214001520BD4680BD80B588B000AFF860B9607A600F
S2140015303B60FB68BB61BB69002B62D0BB691B6963
S214001540002B5ED07B681B894FF0030019464FF0D6
S214001550000205F0C7FE03463B613B69002B0DD039
S2140015603869796806F066FC0346DBB2002B05D0C6
S214001570386906F0A3FA4FF000033B613B69002B85
S2140015803FD04FF0070005F0EBFA03467B617B691E
S214001590002B05D1386906F091FA4FF0000332E0CF
S2140015A07B693A691A607B693A695A6049F634730E
S2140015B0C1F6FF731A687B699A60BB681B7C1A4683
S2140015C07B699A813B691B89FB83BB6903F1100326
S2140015D018467969FFF78AF80346DBB2002B05D078
S2140015E0786901F0CDFD4FF000030CE0BB699B6A03
S2140015F0002B06D0BB699B6AFA8BB8694FF00001D6
S21400160098474FF00003184607F12007BD4680BDF7
S21400161080B588B000AFF860B9607A603B60BB68A0
S214001620002B0FD145F67C00C0F2020045F6A4015F
S214001630C0F202014FF09B0245F6C803C0F2020357
S214001640FEF772FEFB68002B0FD145F67C00C0F259
S214001650020045F6E801C0F202014FF09C0245F692
S214001660C803C0F20203FEF75FFEFB68BB61BB69FE
S2140016705A68BB689A420FD045F67C00C0F202005A
S21400168045F60811C0F202014FF09E0245F6C80367
S214001690C0F20203FEF748FEBB69002B03D0BB690D
S2140016A01B69002B03D1786806F008FA3CE04FF07F
S2140016B0070005F055FA03467B617B69002B03D1D2
S2140016C0786806F0FBF92FE07B697A681A607B6918
S2140016D07A685A603B68002B02D03B681B6801E0C2
S2140016E04FF000037A6993607B693A8D9A817B6834
S2140016F01B89FB83BB6903F1100318467969FEF763
S214001700F5FF0346DBB2002B03D0786901F038FD05
S2140017100AE0BB699B6A002B06D0BB699B6AFA8B02
S214001720B8694FF00001984707F12007BD4680BD15
S21400173080B586B000AFF860B9607A60FB70BB68B1
S214001740002B0FD145F67C00C0F2020045F62811AA
S214001750C0F202014FF0DE0245F6C803C0F20203F3
S214001760FEF7E2FDFB68002B0FD145F67C00C0F2C9
S214001770020045F64C11C0F202014FF0DF0245F6BA
S214001780C803C0F20203FEF7CFFDFB683B613B696E
S2140017905A68BB689A420FD045F67C00C0F2020039
S2140017A045F66C11C0F202014FF0E10245F6C8039F
S2140017B0C0F20203FEF7B8FD3B69002B02D14FF0E2
S2140017C0FA0340E03B691B69002B0ED17B68002BB7
S2140017D008D07B681B89B868194607F0EBFC786868
S2140017E006F06CF94FF000032DE03B691B7A5BB204
S2140017F013F1090F02DB3B69FA781A727B68002B3B
S21400180003D07B681B89FB8202E04FF00003FB825B
S2140018103B6903F1100318467968FEF767FF034635
S214001820DBB2002B02D04FF0FF030CE03B699B6A53
S214001830002B06D03B699B6AFA8A38694FF0000194
S21400184098474FF000035BB2184607F11807BD46ED
S21400185080BD00BF80B584B000AF786039607B681B
S214001860FB60FB68002B0FD145F67C00C0F202003F
S21400187045F68C11C0F202014FF48D7245F6C8038E
S214001880C0F20203FEF750FDFB685B78012B03D124
S214001890F86801F049F906E0FB685B78042B02D192
S2140018A0F86800F0E7FBFB681B7F03F01003002BD3
S2140018B023D0FB685B68002B1FD0FB685B68B3F81F
S2140018C0662040F22F439A4217D9FB685B68B3F84C
S2140018D06830042B11D8FB681B7F03F0EF03FA680F
S2140018E01377FB689B6A002B07D0FB689B6AF86837
S2140018F04FF002014FF0000298474FF000035BB232
S214001900184607F11007BD4680BD00BF80B586B0FB
S21400191000AFF860B9601346FB80FB687B617B69AB
S214001920002B0FD145F67C00C0F2020045F68C1164
S214001930C0F202014FF49F7245F6C803C0F20203DC
S214001940FEF7F2FC7B695B78012B03D1786901F026
S214001950EBF806E07B695B78042B02D1786900F02F
S21400196089FB7B69002B22D07B695B68002B1ED02D
S2140019707B695B68B3F8662040F22F439A4216D91B
S2140019807B695B68B3F86830042B10D87B691B7FD3
S21400199003F0EF037A6913777B699B6A002B06D006
S2140019A07B699B6AFA8878694FF0020198474FF086
S2140019B000035BB2184607F11807BD4680BD00BF9E
S2140019C080B586B000AF78600B46FB707B68FB6026
S2140019D0FB68002B0FD145F67C00C0F2020045F6EE
S2140019E08C11C0F202014FF4B17245F6C803C0F282
S2140019F00203FEF799FCFB684FF000025A60FB6892
S214001A00FA781A72FB685B78FB74FB684FF000028A
S214001A105A70FB689B6A002B07D0FB689B6AF868C5
S214001A204FF004014FF000029847FB689B6A002BBA
S214001A3007D0FB689B6AF8684FF000014FF0000281
S214001A409847FB689B6A002B07D0FB689B6AF86880
S214001A504FF002014FF000029847FB681B69002B0D
S214001A6007D0FB6803F1100318464FF00001FEF79D
S214001A703DFEFB685B69002B07D0FB6803F114038F
S214001A8018464FF00001FEF731FEFB7C012B05D017
S214001A90FB7C042B02D0FB7C032B34D1FB681B7F22
S214001AA003F00403002B0CBF002301237B61FB68BB
S214001AB01B7F03F0FB03FA6813777B69002B37D193
S214001AC0FB685B6A002B0FD145F67C00C0F2020073
S214001AD045F69C11C0F2020140F28B1245F6C8038F
S214001AE0C0F20203FEF720FCFB685B6AFA781A7104
S214001AF0FB684FF000025A62FB6803F10C031846BD
S214001B00FEF7FCFC15E0FB685B6A002B11D045F67F
S214001B107C00C0F2020045F6B811C0F202014FF494
S214001B20C97245F6C803C0F20203FEF7FDFB00E0EB
S214001B3000BF07F11807BD4680BD00BF80B584B062
S214001B4000AF78607B685B68FB60F868796808F0CF
S214001B5017FBF86841F23171C0F2000108F01EFB75
S214001B60F86841F60D11C0F2000108F039FBF8687C
S214001B7041F65501C0F200014FF0040208F080FB68
S214001B80F86841F6C111C0F2000108F049FB07F100
S214001B901007BD4680BD00BF80B588B000AFF860B6
S214001BA0B9601346FB71FB68BB61BB695B69002BC0
S214001BB002D14FF0FA0363E0BB691A78BB699B6AEF
S214001BC01046194600F00CF903467B617B69002B32
S214001BD002D14FF0FF0353E07B69BA685A60786918
S214001BE0FFF7ACFF7B69FA791A72BB6903F114033D
S214001BF018467969FEF77AFD0346DBB2002B31D032
S214001C007B695B68FB61F8694FF0000108F0B8FA81
S214001C10F8694FF0000108F0C1FAF8694FF00001CA
S214001C2008F0DEFAF8694FF000014FF0040208F001
S214001C3027FBF8694FF0000108F0F2FA7B694FF0D5
S214001C4000025A607B6903F110031846FEF70AFD8E
S214001C507B694FF000021A61786900F029F94FF0AD
S214001C60FF030DE0BB699B6A002B07D0BB699B6A2C
S214001C70B8694FF000014FF0000298474FF000039C
S214001C805BB2184607F12007BD4680BD90B583B00D
S214001C9000AF78607B681B685B68002B0FD045F64A
S214001CA07C00C0F2020045F6D411C0F202014FF4E7
S214001CB0F67245F6C803C0F20203FEF735FB7B68F2
S214001CC01B681B7803F0F003202B25D0402B02D096
S214001CD0102B4AD05FE07B681C687B681B7A18462E
S214001CE006F090FD034663607B681B685B68002B0C
S214001CF004D17B684FF0FF321A7150E07B681B6896
S214001D005A687B681B68104641F22551C0F20001F4
S214001D101A4606F08DFC42E07B681C680DF0A6FDB6
S214001D20034663607B681B685B68002B04D17B6896
S214001D304FF0FF321A7132E07B681B681B78222B4B
S214001D4005D17B681B685B684FF001021A747B68DC
S214001D501B685A687B681B68104641F21161C0F226
S214001D6000011A460DF034FD19E07B681C6808F087
S214001D70FDF9034663607B681B685B68002B04D133
S214001D807B684FF0FF321A7109E07B681B681846C3
S214001D90FFF7D4FE03E07B686FF005021A7107F1C7
S214001DA00C07BD4690BD00BF80B582B000AF78601E
S214001DB07B684FF000021A717B681B685B68002B1B
S214001DC002D17868FFF762FF7B681B6803F10C039B
S214001DD01846FEF793FB07F10807BD4680BD00BF17
S214001DE080B584B000AF03463960FB714FF0080041
S214001DF004F0B6FE0346BB60BB68002B02D14FF072
S214001E00000350E0BB684FF000021A72BB68FA7914
S214001E101A70BB684FF000025A604FF00003FB6078
S214001E20BB6803F10C0318464FF00001FEF7FEFAFC
S214001E300346DBB2002B2ED1BB6803F11003184615
S214001E40F968FEF7C9FB0346DBB2002B06D0BB6879
S214001E5003F10C031846FEF731FB1DE0BB684FF09C
S214001E6000025A61BB684FF000025A70BB684FF020
S214001E70FF329A61BB683A689A62BB684FF000020C
S214001E805A62BB684FF000021A62BB684FF000024D
S214001E901A77BB6807E000BF4FF00800B96804F087
S214001EA02DFF4FF00003184607F11007BD4680BD12
S214001EB080B582B000AF78607B685B68002B0FD07F
S214001EC045F67C00C0F2020045F6F411C0F20201AD
S214001ED040F2932245F6C803C0F20203FEF724FA46
S214001EE07B681B69002B0FD045F67C00C0F2020011
S214001EF045F62421C0F2020140F2952245F6C803B9
S214001F00C0F20203FEF710FA7B685B69002B0FD065
S214001F1045F67C00C0F2020045F66021C0F20201E0
S214001F204FF4267245F6C803C0F20203FEF7FCF92A
S214001F307B6803F10C031846FEF7C0FA7B684FF087
S214001F400002DA604FF00800796804F0D7FE07F167
S214001F500807BD4680BD00BF80B586B000AF78607C
S214001F607B681B69002B36D01EE07B681B78102B25
S214001F7014D1FB68002B16D0FB683B617B685B685E
S214001F80002B07D07B685A683B691B8910461946A8
S214001F9007F010F9386905F091FD05E0FB68184672
S214001FA001F0EEF800E000BF7B6803F1100207F1D5
S214001FB00C0310461946FEF71DFC0346B3F1FF3F1F
S214001FC0D3D17B6803F110031846FEF74BFB7B6802
S214001FD04FF000021A617B685B69002B45D02DE04C
S214001FE0FB687B617B685B68002B14D07B685B6852
S214001FF01B7E012B0FD045F67C00C0F2020045F692
S2140020009C21C0F2020140F2D22245F6C803C0F27B
S2140020100203FEF789F97869FFF79EFF7B695B6824
S214002020002B08D07B695B68184606F0FDFE7B69CE
S2140020304FF000025A607869FFF73AFF7B6803F1B9
S214002040140207F10C0310461946FEF7D3FB0346AD
S214002050B3F1FF3FC4D17B6803F114031846FEF7C3
S21400206001FB7B684FF000025A6107F11807BD4676
S21400207080BD00BF80B584B000AF78607B68002B61
S2140020800FD145F67C00C0F2020045F6CC21C0F226
S21400209002014FF43C7245F6C803C0F20203FEF795
S2140020A043F97B681B78102B0FD045F67C00C0F2F6
S2140020B0020045F6DC21C0F2020140F2F12245F6AC
S2140020C0C803C0F20203FEF72FF97B685B78042B87
S2140020D00FD045F67C00C0F2020045F6FC21C0F2A7
S2140020E0020140F2F22245F6C803C0F20203FEF7F0
S2140020F01BF97B685B68002B0FD145F67C00C0F2AD
S214002100020045F62031C0F2020140F2F32245F605
S214002110C803C0F20203FEF707F97B685B6A002B70
S2140021200FD145F67C00C0F2020045F69C11C0F2C5
S21400213002014FF43D7245F6C803C0F20203FEF7F3
S214002140F3F87B685B6A1B7A3B733B7B03F0010307
S2140021507B733B7B03F00203BB733B7B032B14BFF9
S21400216000230123FB73FB7B002B06D07B685B6898
S21400217018464FF0000108F003F87B685B681B7E8A
S214002180012B07D17B685B6818464FF0000108F00A
S21400219069F82DE07B7B002B0DD07B685B681846CA
S2140021A04FF0000107F0FAFF7B685B6818464FF0B7
S2140021B0000108F057F8BB7B002B06D07B685B68F5
S2140021C018464FF0000108F00BF8FB7B002B0FD0F1
S2140021D07B685B6818464FF000014FF0040208F079
S2140021E04FF87B685B6818464FF0000108F018F857
S2140021F0FB7B002B08D07B685B68184606F020FD4A
S2140022000346DBB2FB720BE07B6859687A7BBB7BCC
S214002210084611461A4606F031FD0346DBB2FB724D
S21400222097F90B30002B44D17B685B6A4FF00002B5
S2140022301A717B684FF000025A627B684FF000020A
S2140022405A70FB7B002B0FD07B684FF000025A6061
S2140022507B689B6A002B07D07B689B6A78684FF088
S21400226004014FF0000298477B7B002B0BD07B6865
S2140022709B6A002B07D07B689B6A78684FF000014A
S2140022804FF000029847BB7B002B0BD07B689B6A05
S214002290002B07D07B689B6A78684FF002014FF0EE
S2140022A0000298477B6803F10C031846FEF726F9F0
S2140022B037E07B685B681B7E012B0FD145F67C0000
S2140022C0C0F2020045F63431C0F2020140F22D326F
S2140022D045F6C803C0F20203FEF726F87B685B6883
S2140022E0184641F60D11C0F2000107F079FF7B6831
S2140022F05B68184641F65501C0F200014FF0040233
S21400230007F0BEFF7B685B68184641F6C111C0F255
S214002310000107F085FF7B685B681846796807F060
S2140023202FFF07F11007BD4680BD00BF80B582B005
S21400233000AF78607B681B685B78002B23D07B68D7
S2140023401B685B78022B1ED07B681B685B78032BB0
S21400235019D07B681B681B78102B0FD045F67C00C5
S214002360C0F2020045F65831C0F2020140F2473290
S21400237045F6C803C0F20203FDF7D6FF7B686FF090
S21400238004021A7197E07B681B685B78032B16D1F2
S2140023907B681B681B7F03F00403002B0FD145F6F8
S2140023A07C00C0F2020045F67831C0F2020140F22D
S2140023B04B3245F6C803C0F20203FDF7B5FF7B6853
S2140023C01B681846FFF7C8FD7B681B685B68002B18
S2140023D051D07B681B681B7803F0F003202B0BD0D2
S2140023E0402B02D0102B14D040E07B681B685B6843
S2140023F0184606F0CBF939E07B681B685B684FF03F
S2140024000002DA617B681B685B6818460DF0F2F91B
S2140024102CE07B681B685B6A002B04D17B681B681A
S2140024201B6A002B0FD045F67C00C0F2020045F672
S2140024309831C0F202014FF4587245F6C803C0F254
S2140024400203FDF771FF7B681B684FF004025A70A9
S2140024507B684FF003021A727B681B687A685A62C0
S2140024607B681B681846FFF705FE30E07B681B6834
S2140024704FF000025A607B681B689B6A002B0AD0EC
S2140024807B681B689B6A7A68126810464FF00001EA
S2140024904FF0000298477B681B689B6A002B0AD0A7
S2140024A07B681B689B6A7A68126810464FF00201C8
S2140024B04FF0000298477B681B68DB68002B06D04D
S2140024C07B681B6803F10C031846FEF717F807F144
S2140024D00807BD4680BD00BF80B582B000AF7860FB
S2140024E07B681B681B7A5BB213F1090F05DA7B6801
S2140024F01B681A7A7B681A7143E07B686FF00502E6
S2140025001A717B681B685B68002B3AD07B681B6877
S2140025101B7803F0F003202B12D0402B02D0102B98
S2140025201FD02EE07B681B685A687B689B68104645
S214002530194606F04DF80346DAB27B681A7120E0B9
S2140025407B681B6859687B689A687B689B89084625
S21400255011461A460DF04AF80346DAB27B681A713D
S2140025600FE07B681B6859687B689A687B689B8964
S214002570084611461A4606F065FC0346DAB27B6842
S2140025801A717B681B6803F10C031846FDF7B6FF4B
S21400259007F10807BD4680BD80B586B000AFF8607D
S2140025A0B9601346FB71FB683B613B69002B02D1A7
S2140025B04FF0FA037BE03B695B78032B0FD045F6C0
S2140025C07C00C0F2020045F6B431C0F2020140F2CF
S2140025D0B63245F6C803C0F20203FDF7A5FE3B6916
S2140025E05B6A002B15D13B691B7F03F00403002BAD
S2140025F00FD145F67C00C0F2020045F6D431C0F299
S21400260002014FF46E7245F6C803C0F20203FDF7EE
S2140026108BFE3B695B6A002B03D03B695B6AFA79E9
S2140026201A713B691B78102B06D197F90730002BDF
S21400263002D13869FFF782FA3B691B7F03F0040377
S214002640002B14BF002301237B613B691B7F03F033
S214002650FB033A6913773B694FF000025A623B6905
S2140026604FF000025A707B69002B09D13B691B7A38
S2140026705BB213F1090F03DB3B694FF000021A72DD
S2140026803B699B6A002B07D03B699B6A38694FF011
S21400269002014FF0000298477B69002B05D03B698A
S2140026A003F10C031846FDF729FF4FF000035BB259
S2140026B0184607F11807BD4680BD00BF80B584B038
S2140026C000AF78607B681B685B68002B04D17B6872
S2140026D06FF00B021A7198E07B681B681B7803F09A
S2140026E0F003202B12D0402B02D0102B1FD076E008
S2140026F07B681B685A687B689B681046194605F01D
S2140027007FFF0346DAB27B681A717EE07B681B683F
S21400271059687B689A687B689B89084611461A4602
S2140027200CF0E4FF0346DAB27B681A716DE07B6852
S2140027301B685B78002B04D07B686FF008021A7168
S21400274063E07B681B681846FFF7F8F97B681B6830
S21400275059687B689A687B689B89084611461A46C2
S21400276042F29953C0F2000306F0E2FD0346DAB2E5
S2140027707B681A717B681B79002B45D17B681B68C8
S2140027801B7F03F00203002B0CBF00230123FB7307
S2140027907B681B684FF003025A70FB7B002B09D046
S2140027A07B681B687A681268127F42F00402D2B215
S2140027B01A7707E07B681A687B681B681B7F03F044
S2140027C0FB031377FB7B002B04D07B686FF00402BF
S2140027D01A711AE07B681B687A685A621CE045F634
S2140027E07C00C0F2020045F61441C0F2020140F23D
S2140027F0034245F6C803C0F20203FDF795FD7B6869
S2140028006FF005021A7100E000BF7B681B6803F1D9
S2140028100C031846FDF772FE07F11007BD4680BD93
S21400282080B582B000AF78607B681B681B7803F0C9
S214002830F003202B0AD17B681B685B6818460CF0F7
S214002840AFFF7B684FF000021A7103E07B686FF001
S21400285005021A717B681B6803F10C031846FDF726
S2140028604DFE07F10807BD4680BD00BF80B584B0A9
S21400287000AF78607B681B681B7A5BB213F1090FA8
S21400288005DA7B681B681A7A7B681A717BE07B68BE
S2140028906FF00C021A717B681B685B68002B72D0A5
S2140028A07B681B681B78102B67D17B681B685B787E
S2140028B0002B67D17B681B685B6818464FF0FF01EA
S2140028C006F05CFB0346FB60FB68002B04D17B68CC
S2140028D04FF0FF321A7156E07B681B681B69002BAD
S2140028E00BD07B681B6803F110031846FDF7BAFE91
S2140028F07B681B684FF000021A617B684FF000028D
S2140029001A717B681B685B69002B0CD17B681B689F
S21400291003F1140318464FF01001FDF75DFE034661
S214002920DAB27B681A717B681B79002B1CD17B6836
S2140029301B684FF002025A707B681B68FA685A6080
S2140029407B681B685A687B681B681046194607F048
S21400295017FC7B681B685B68184641F69931C0F225
S214002960000107F07FFC0EE0F86806F069F97B6866
S2140029701B684FF000025A6005E07B686FF00D029E
S2140029801A7100E000BF7B681B6803F10C03184651
S214002990FDF7B4FD07F11007BD4680BD80B582B0D7
S2140029A000AF78607B681B681B7A5BB213F1090F77
S2140029B005DA7B681B681A7A7B681A716DE07B689B
S2140029C06FF00C021A717B681B685B68002B64D082
S2140029D07B681B681B7803F0F003202B30D0402B5D
S2140029E05BD17B689B6803F10803002B04D07B68EF
S2140029F09B689B68002B0FD17B681B685A687B68B6
S214002A009B681B681046194605F0AAFE0346DAB214
S214002A107B681A7100BF40E07B681B6859687B685A
S214002A209B681A687B689B6803F108030846114692
S214002A301A4605F00FFE0346DAB27B681A712CE0E0
S214002A407B689B6803F10803002B04D07B689B68B7
S214002A509B68002B0ED17B681B685A687B689B6856
S214002A601B68104619460CF093FC0346DAB27B68E6
S214002A701A7112E07B681B6858687B689B68196847
S214002A807B689B6803F108027B689B689B890CF057
S214002A9097FC0346DAB27B681A717B681B6803F101
S214002AA00C031846FDF72AFD07F10807BD4680BD52
S214002AB080B584B000AF78607B684FF000021A7172
S214002AC07B681B685B68002B22D07B681B681B78C2
S214002AD0102B1DD17B689B68BB60BA684FF6FF73EE
S214002AE09A4202D8BB689BB201E04FF6FF73FB81A7
S214002AF07B681B685A68FB891046194606F05AFB25
S214002B00FB89BA68C3EB0203BB60BB68002BE4D149
S214002B107B681B6803F10C031846FDF7EFFC07F112
S214002B201007BD4680BD00BF80B588B000AF786096
S214002B304FF00003FB757B681B7F03F00203002B3E
S214002B4006D17B685B6A1B7C03F00403002B02D073
S214002B504FF0010301E04FF00003BB777B685B6A30
S214002B601B7CFB777B68002B0FD145F67C00C0F200
S214002B70020045F68C11C0F2020140F2C34245F64F
S214002B80C803C0F20203FDF7CFFB7B685B78012B1E
S214002B900FD045F67C00C0F2020045F62C41C0F28C
S214002BA0020140F2C44245F6C803C0F20203FDF734
S214002BB0BBFB7B685B6A002B0FD145F67C00C0F23E
S214002BC0020045F69C11C0F2020140F2C54245F6ED
S214002BD0C803C0F20203FDF7A7FB7B685B68002B07
S214002BE00FD145F67C00C0F2020045F64C41C0F21B
S214002BF0020140F2C64245F6C803C0F20203FDF7E2
S214002C0093FB7B681A6A7B685B6ADB689A420FD321
S214002C1045F67C00C0F2020045F66441C0F20201AF
S214002C204FF4996245F6C803C0F20203FDF77CFB39
S214002C307B685B6A9A687B681B6A1344FB607B68E8
S214002C405B6ADA687B681B6AC3EB0203BB61BA691E
S214002C504FF6FF739A4207D94FF6FF737B82FB7FCE
S214002C6043F00203FB7701E0BB697B827B685B680D
S214002C70B3F86630BB82BA8A7B8A9A4211D2BB8A84
S214002C807B82BB7F002B06D07B8A002B08D16FF09F
S214002C900603FB7232E0FB7F43F00203FB7700E0A3
S214002CA000BF7B681A6A7B8A1A447B685B6ADB68AB
S214002CB09A420FD945F67C00C0F2020045F69841CC
S214002CC0C0F2020140F2F54245F6C803C0F2020324
S214002CD0FDF72AFB7B6859687A8AFB7F0846F96805
S214002CE00AF014FD0346DBB2FB7297F90B30002B9B
S214002CF004D097F90B30B3F1FF3F34D1BB7F002BE4
S214002D0018D07A8A7B685B6ADB689A4212D27B6844
S214002D109B6A002B06D07B689B6A7A8A78684FF09D
S214002D20030198477B681B7F43F01003DAB27B6889
S214002D301A7718E07B685B68B3F8662040F22F438A
S214002D409A4205D97B685B68B3F86830042B0AD9C9
S214002D507B689B6A002B06D07B689B6A7A8A7868B9
S214002D604FF00301984797F90B30002B21D17B6871
S214002D701A6A7B8A1A447B681A627B681A6A7B68BE
S214002D805B6ADB689A4202D0BB7F002B0BD07B6865
S214002D905B6A7A68126ADA604FF00103FB757B683B
S214002DA04FF000021A627B685B6818460BF0C6F9A3
S214002DB015E097F90B30B3F1FF3F08D1BB7F002B2E
S214002DC005D17B685B6818460BF0B8F907E04FF052
S214002DD00103FB757B685B6A4FF00002DA60FB7DDF
S214002DE0002B11D07B685B6AFA7A1A717B684FF009
S214002DF000025A627B684FF000025A707B6803F14B
S214002E000C031846FDF77AFB4FF000035BB218463A
S214002E1007F12007BD4680BD80B582B000AF786060
S214002E207B681B681B7A5BB213F1090F05DA7B68B7
S214002E301B681A7A7B681A715EE07B681B681B78D1
S214002E40102B55D17B681B685B78002B04D07B6801
S214002E506FF004021A714FE07B681B685B68002BFA
S214002E6041D07B681B684FF001025A707B681B6874
S214002E705B6A002B04D17B681B681B6A002B0FD093
S214002E8045F67C00C0F2020045F69831C0F2020119
S214002E9040F24D5245F6C803C0F20203FDF744FA6D
S214002EA07B68DB68002B0FD145F67C00C0F2020081
S214002EB045F6B841C0F2020140F24E5245F6C8034C
S214002EC0C0F20203FDF730FA7B681B687A685A6224
S214002ED07B681B684FF000021A627B681B68184606
S214002EE0FFF722FE0FE07B686FF00C021A7103E01A
S214002EF07B686FF005021A717B681B6803F10C0390
S214002F001846FDF7FBFA07F10807BD4680BD00BF6F
S214002F1080B582B000AF78607B681B685B68002B6A
S214002F2075D07B689B687A68127C002A05D07A6820
S214002F301268526812681A6004E07A68126852686A
S214002F4052681A607B684FF000021A717B681B6833
S214002F501B7803F0F003202B15D0402B02D0102B4B
S214002F6032D043E07B681B7C002B07D07B68DB6895
S214002F707A6812685268127C1A804CE07B686FF0A0
S214002F800C021A7147E07B681B7C002B07D07B681D
S214002F90DB687A6812685268528A1A803BE07B685F
S214002FA01B685B681B7C03F00403002B04D17B6862
S214002FB06FF00C021A712EE07B68DB687A68126884
S214002FC05268928A1A8026E07B68DA687B681B7CE7
S214002FD0002B04D07B681B685B685B8B03E07B6818
S214002FE01B685B689B8B138000BF14E045F67C0073
S214002FF0C0F2020045F6CC41C0F2020140F29B52FC
S21400300045F6C803C0F20203FDF78EF903E07B68BD
S2140030106FF00C021A717B681B6803F10C031846EC
S214003020FDF76CFA07F10807BD4680BD80B582B093
S21400303000AF78607B681B685B78002B1ED07B68CF
S2140030401B685B78022B19D07B681B681B78102BDB
S2140030500FD045F67C00C0F2020045F65831C0F2AB
S214003060020140F2B15245F6C803C0F20203FDF772
S2140030705BF97B686FF004021A7150E07B681B688E
S2140030805B68002B47D07B681B681B78102B42D1EF
S2140030907B681B7A032B09D07B681B685B78022B46
S2140030A004D17B686FF00C021A7138E07B681B7ADB
S2140030B003F00103DBB2002B04D07B681B681846C4
S2140030C0FEF74AFF7B681B685B6A002B04D17B68AF
S2140030D01B681B6A002B0FD045F67C00C0F202006E
S2140030E045F69831C0F2020140F2BD5245F6C803DB
S2140030F0C0F20203FDF718F97B681B684FF0040264
S2140031005A707B681B687A685A627B681B68184628
S214003110FEF7B0FF0AE07B686FF005021A717B6865
S2140031201B6803F10C031846FDF7E8F907F10807DA
S214003130BD4680BD80B582B000AF4FF0070003F0FB
S2140031400FFD03467B607B68002B11D07B684FF039
S21400315000021A607B684FF000025A607B684FF0EE
S21400316000029A607B684FF000029A817B6801E05B
S2140031704FF00003184607F10807BD4680BD00BFA4
S21400318080B582B000AF78607B68002B15D07B6876
S2140031901B68002B0CD07B681B68184604F08EFC5E
S2140031A07B684FF000025A607B685A687B681A603A
S2140031B04FF00700796803F0A1FD07F10807BD4648
S2140031C080BD00BF80B582B000AF78600B467B80C4
S2140031D07B68002B12D145F6E440C0F2020045F6AB
S2140031E00C51C0F202014FF06D0245F62853C0F2B2
S2140031F00203FDF799F84FF0000337E07B681B6881
S214003200002B04D07B681B68184604F057FC7B88AC
S2140032104FF0000019464FF0000204F063F8024633
S2140032207B681A607B681B68002B02D14FF0000396
S2140032301CE07B681B685B897A889A420FD945F642
S214003240E440C0F2020045F64851C0F202014FF0D9
S214003250780245F62853C0F20203FDF765F87B684E
S2140032601A687B685A607B681B685B68184607F1BB
S2140032700807BD4680BD00BF80B582B000AF78604D
S2140032807B68002B10D145F6E440C0F2020045F6FC
S2140032906C51C0F202014FF0850245F62853C0F289
S2140032A00203FDF741F810E07B681B68002B04D092
S2140032B07B681B68184604F001FC7B684FF0000230
S2140032C05A607B685A687B681A6007F10807BD4633
S2140032D080BD00BF80B584B000AFF860B96013460B
S2140032E0FB80FB68002B12D145F6E440C0F20200DA
S2140032F045F68851C0F202014FF0980245F6285371
S214003300C0F20203FDF710F84FF0F20330E0FB685E
S2140033101B68002B04D0FB681B68184604F0CEFB25
S2140033204FF000004FF000014FF0020203F0DAFF0A
S2140033300246FB681A60FB681B68002B06D1FB6818
S2140033404FF000025A604FF0FF0311E0FB681B6865
S214003350BA685A60FB681A68FB681B68F9881981A6
S2140033601B895381FB681A68FB685A604FF000039C
S2140033705BB2184607F11007BD4680BD80B582B027
S21400338000AF786039607B68002B10D145F6E440CA
S214003390C0F2020045F6A051C0F202014FF0B002A2
S2140033A045F62853C0F20203FCF7BEFF24E03B6854
S2140033B0002B10D145F6E440C0F2020045F6BC51A1
S2140033C0C0F202014FF0B10245F62853C0F20203E4
S2140033D0FCF7AAFF10E07B681A683B681B6810467B
S2140033E0194604F04DFC7B681A687B685A604FF0FB
S2140033F00700396803F082FC07F10807BD4680BD68
S21400340080B584B000AFF860B9607A60FB68002BC6
S21400341012D145F6E440C0F2020045F6D851C0F29B
S21400342002014FF0C30245F62853C0F20203FCF730
S2140034307BFF4FF0F2033EE0BB68002B12D145F64F
S214003440E440C0F2020045F6F451C0F202014FF02B
S214003450C40245F62853C0F20203FCF765FF4FF09E
S214003460F20328E07B68002B12D145F6E440C0F258
S214003470020045F61461C0F202014FF0C50245F69F
S2140034802853C0F20203FCF74FFF4FF0F20312E09E
S214003490FB685B68002B02D14FF0FE030BE0FB6875
S2140034A05B685A68BB681A60FB685B685A897B6809
S2140034B01A804FF000035BB2184607F11007BD46AE
S2140034C080BD00BF80B582B000AF78607B68002BFF
S2140034D012D145F6E440C0F2020045F66C51C0F247
S2140034E002014FF0DC0245F62853C0F20203FCF757
S2140034F01BFF4FF0FF0316E07B685B681B68002B22
S21400350002D14FF0FF030EE07B685B681A687B68A9
S2140035105A607B685B681B68002B02D14FF0010382
S21400352001E04FF000035BB2184607F10807BD46FE
S21400353080BD00BF80B582B000AF78607B68002B8E
S21400354010D145F6E440C0F2020045F66C51C0F2D8
S21400355002014FF0F10245F62853C0F20203FCF7D1
S214003560E3FE03E07B681A687B685A6007F1080789
S214003570BD4680BD80B400AFBD4680BC704700BF6E
S21400358080B485B000AF78607B68002B02DB7B6878
S214003590032B02DD4FF0000315E07A6813464FEA6E
S2140035A0430313444FEAC3031A4640F24053C1F69E
S2140035B0FF731344FB60FB681B68002B02D14FF0BF
S2140035C0000300E0FB68184607F11407BD4680BC00
S2140035D0704700BF80B483B000AF78607B68002B74
S2140035E002DB7B68032B02DD4FF000031EE07968E8
S2140035F040F24052C1F6FF720B464FEA43030B44BB
S2140036004FEAC30313441B68002B02D14FF000039C
S2140036100CE07A6813464FEA430313444FEAC303A9
S2140036201A4640F24053C1F6FF731344184607F19A
S2140036300C07BD4680BC704780B485B000AF78608C
S21400364039604FF00003FB60A4E0F96840F2405296
S214003650C1F6FF720B464FEA43030B444FEAC3031F
S21400366013441B68002B40F09180F96840F24052EA
S214003670C1F6FF720B464FEA43030B444FEAC303FF
S21400368013447A681A60F96840F24052C1F6FF7235
S2140036900B464FEA43030B444FEAC303134403F1BC
S2140036A004034FF000021A60F96840F24052C1F677
S2140036B0FF720B464FEA43030B4403F101034FF03E
S2140036C0000122F83310F96840F24052C1F6FF724A
S2140036D00B464FEA43030B4403F101034FEAC303CF
S2140036E013444FF000025A80F9687B681B78102B51
S2140036F002D13B68002B02D04FF0010301E04FF0EF
S214003700000398B240F24052C1F6FF720B464FEAF1
S21400371043030B4403F101034FEAC3031344024679
S2140037209A80F96840F24052C1F6FF720B464FEAA3
S21400373043030B4403F101034FEAC30313444FF062
S2140037400002DA80F96840F24052C1F6FF720B467A
S2140037504FEA43030B444FEAC303134403F1100339
S2140037604FF000021A60F96840F24052C1F6FF724C
S2140037700B464FEA43030B444FEAC303134403F1DB
S21400378014034FF000021A60FB6809E0FB6803F1BF
S2140037900103FB60FB68032B7FF757AF4FF0FF3347
S2140037A0184607F11407BD4680BC704780B584B044
S2140037B000AF786039607B685B68FB607B684FF0C1
S2140037C000025A607B684FF000021A817B684FF057
S2140037D000021A617B684FF000021A60FB68002B3B
S2140037E00BD03B68002B04D0FB68184604F066F943
S2140037F003E0FB681846FFF7C3FC07F11007BD4659
S21400380080BD00BF80B590B000AFF860B9607A6048
S214003810F868FFF7B5FE03463B633B6B002B02D10F
S2140038204FF0FF3337E13B6B1B681B7F03F002034F
S214003830002B0BD03B6B5B891BB2002B06DC3B6B73
S2140038404FF00B021A614FF0FF3324E13B6B1A680E
S21400385007F12C0310461946FDF78CFA0346DBB237
S21400386087F83F3097F93F30002B23D03B6B1B681F
S2140038701B78102B06D03B6B4FF05F021A614FF09F
S2140038805F0308E197F93F30C3F100030F2B0AD816
S21400389097F93F30C3F1000245F63063C0F20203E9
S2140038A053F8223001E04FF005033A6B13614FF0F6
S2140038B0FF33F0E0FB6A002B0FD145F67060C0F2D4
S2140038C0020045F69861C0F202014FF4AD7245F66B
S2140038D0A863C0F20203FCF727FDFB6AFA6A127FB0
S2140038E042F00802D2B21A77F96A07F1280207F105
S2140038F02603084611461A464FF00003FDF7C6F8A1
S2140039000346DBB287F83F3097F93F30002B1BD0D9
S214003910FB6A1846FDF798F897F93F30C3F10003A5
S2140039200F2B0AD897F93F30C3F1000245F63063F3
S214003930C0F2020353F8223001E04FF005033A6B61
S21400394013614FF0FF33A6E0BB68002B3AD07B68CC
S214003950002B0FD145F67060C0F2020045F6C86134
S214003960C0F2020140F26B1245F6A863C0F20203F1
S214003970FCF7DAFC07F1140318464FF000014FF08D
S214003980100214F051FE4FF010033B754FF0020387
S2140039907B75FB8C184602F06FFA0346FB82BB6A07
S2140039A0BB617B681B68102B03D97B684FF0100245
S2140039B01A607B681B6807F11402B86811461A463D
S2140039C014F06AFDFB6A18464FF00101FFF734FE5B
S2140039D00346BB63BB6BB3F1FF3F0AD1FB6A1846D5
S2140039E0FDF732F83B6B4FF017021A614FF0FF33CA
S2140039F051E0BB6B002B02DBBB6B032B0FDD45F6E8
S214003A007060C0F2020045F6E461C0F202014FF4B5
S214003A10BF7245F6A863C0F20203FCF785FCFB6A9A
S214003A209A6A44F61D43C0F200039A420FD045F648
S214003A307060C0F2020045F6FC61C0F2020140F27E
S214003A407F1245F6A863C0F20203FCF76DFCBA6B62
S214003A5013464FEA430313444FEAC3031A4640F2A1
S214003A604053C1F6FF7313447B637B6B5B899AB24A
S214003A70FB6A9B699BB26FEA03039BB213449BB23B
S214003A801A467B6B5A81FB6ABA6B9A613B6B4FF0A6
S214003A9000021A61BB6B184607F14007BD4680BDA1
S214003AA090B589B000AFF860B9607A60F868FFF743
S214003AB067FD03467B617B69002B02D14FF0FF3325
S214003AC060E07B68102B08D1BB685B78022B04D1C2
S214003AD0BB6803F00303002B19D045F67060C0F2F4
S214003AE0020045F62071C0F2020140F2A51245F62A
S214003AF0A863C0F20203FCF717FC45F63063C0F279
S214003B0002039A6B7B691A614FF0FF333AE0BB6899
S214003B10FB61FB695B683B61FB695B883B837B6998
S214003B201C683B8B184602F0BFF9034607F11002EB
S214003B30204611461A46FDF71BF80346DBB2FB7615
S214003B4097F91B30002B17D097F91B30C3F10003F1
S214003B500F2B0AD897F91B30C3F1000245F63063E5
S214003B60C0F2020353F8223001E04FF005037A69F1
S214003B7013614FF0FF3305E07B694FF000021A61D6
S214003B804FF00003184607F12407BD4690BD00BF5E
S214003B9080B584B000AF78604FF00003FB607868B3
S214003BA0FFF7EEFC0346BB60BB68002B02D14FF06C
S214003BB0FF332BE0BB681B68002B08D0BB681B6874
S214003BC01B78102B14BF00230123FB6013E0BB6897
S214003BD05B68002B0FD045F67060C0F2020045F619
S214003BE03C71C0F202014FF4E67245F6A863C0F2DB
S214003BF00203FCF799FBBB681B681846FCF724FF1A
S214003C00B868F968FFF7D2FD4FF00003184607F1D1
S214003C101007BD4680BD00BF90B58BB000AFF86002
S214003C20B9607A60F868FFF7ABFC0346BB61BB6916
S214003C30002B02D14FF0FF336DE07B68102B08D1CC
S214003C40BB685B78022B04D1BB6803F00303002B30
S214003C5019D045F67060C0F2020045F65471C0F205
S214003C60020140F2E51245F6A863C0F20203FCF733
S214003C705BFB45F63063C0F202039A6BBB691A61C0
S214003C804FF0FF3347E0BB683B623B6A5B78002B34
S214003C9008D1BB691B681846FCF7F2FF0346DBB287
S214003CA0FB7716E03B6A5B687B613B6A5B88FB845C
S214003CB0BB691C68FB8C184602F0F6F8034607F151
S214003CC01402204611461A46FCF796FF0346DBB25E
S214003CD0FB7797F91F30002B17D097F91F30C3F1E9
S214003CE000030F2B0AD897F91F30C3F1000245F6E0
S214003CF03063C0F2020353F8223001E04FF00503B0
S214003D00BA6913614FF0FF3305E0BB694FF000025C
S214003D101A614FF00003184607F12C07BD4690BD08
S214003D2080B584B000AF786039607868FFF728FC0B
S214003D300346BB60BB68002B02D14FF0FF3342E066
S214003D403B68FE2B03DC3B6823EAE37301E04FF09D
S214003D50FF033B60BB681A683B68DBB21046194637
S214003D60FCF7CAFF0346DBB2FB7397F90F30002B54
S214003D7023D0BB681B681B78102B06D0BB684FF09F
S214003D805F021A614FF05F031DE097F90F30C3F131
S214003D9000030F2B0AD897F90F30C3F1000245F63F
S214003DA03063C0F2020353F8223001E04FF00503FF
S214003DB0BA6813614FF0FF3305E0BB684FF00002AE
S214003DC01A614FF00003184607F11007BD4680BD84
S214003DD080B592B000AFF860B9607A603B604FF093
S214003DE00003FB624FF00003FB634FF0000387F80D
S214003DF04630F868FFF7C4FB03463B633B6B002B7B
S214003E0002D14FF0FF3393E13B6B5B68002B03D08E
S214003E103B6B5B68FB628FE03B6803F00803002B9C
S214003E2006D13B6B1B681B7F03F00203002B1BD0E5
S214003E303B6B5B891BB2002B16DCFB6B002B0CDD8F
S214003E403B6B1A68FB6B10461946FDF7D5F93B6BC2
S214003E504FF000021A61FB6B6AE13B6B4FF00B02FE
S214003E601A614FF0FF3363E13B6B1B681B78102B26
S214003E700CD13B6B1A6807F12C0310461946FDF768
S214003E80D7F80346DBB287F847300BE03B6B1A687F
S214003E9007F12C0310461946FDF7F8F80346DBB287
S214003EA087F8473097F94730002B2FD0FB6B002B55
S214003EB00CDD3B6B1A68FB6B10461946FDF79CF948
S214003EC03B6B4FF000021A61FB6B31E197F947300C
S214003ED0C3F100030F2B0AD897F94730C3F100024D
S214003EE045F63063C0F2020353F8223001E04FF08B
S214003EF005033A6B136197F9473013F10C0F02D1A3
S214003F004FF0000314E14FF0FF3311E1FB6A002B82
S214003F100FD145F67060C0F2020045F67471C0F22B
S214003F20020140F2712245F6A863C0F20203FCF7D4
S214003F30FBF9FA6A3B6B5A603B6B1B681B78102BCD
S214003F4002D1FB6A7B6302E0FB6A1B687B637B6BC8
S214003F501B893B873B6B1B893A8FC3EB02033B876E
S214003F603A8F7B689A4202D23B8F7B8701E07B6860
S214003F707B87FA6BBB6802EB03013B6B1B897A8F6E
S214003F80786B04F059F87B8FFA6B1344FB633B6B3A
S214003F901B681B78102B32D17A8F7B689A420FD918
S214003FA045F67060C0F2020045F68071C0F202016C
S214003FB040F28D2245F6A863C0F20203FCF7B4F97E
S214003FC07B8F7A68C3EB02037B607B68002B11D083
S214003FD07B6B5B7B03F00103DBB2002B0AD13B6BF0
S214003FE05B891BB2002B05DD3B6803F00103DBB2E7
S214003FF0002B09D04FF0010387F8463005E04FF05C
S214004000010387F8463000E000BF97F84630002BE3
S21400401049D03B6D002B46D07B6D002B43D03B6BCD
S2140040201B681B78102B0ED107F124033B643B6BF7
S2140040301A6807F12A031046396C1A464FF0000337
S214004040FCF724FD06E0FB6A03F108033B64FB6A09
S2140040509B897B8507F1140318464FF000014FF04B
S214004060100214F0E1FA4FF010033B754FF0020314
S2140040707B757B8D184601F0FFFE0346FB823B6C8A
S2140040801B68BB617B6D1B68102B03D97B6D4FF0E3
S21400409010021A607B6D1B6807F11402386D11461A
S2140040A01A4614F0F9F93B6803F00103002B2BD1F4
S2140040B03B6B1B681B78102B10D13A8F7B8FC3EBA2
S2140040C00203002B0ADDFA6A3B6B5A603B6B1A89C7
S2140040D07B8F13449AB23B6B1A8115E03B6B4FF013
S2140040E000025A603B6B4FF000021A813B6B1B6864
S2140040F01B78102B04D1FB6A184603F0DFFC03E0A4
S214004100FB6A1846FFF73CF897F84630002B3FF45A
S2140041107BAEFB6B002B06DD3B6B1A68FB6B104619
S2140041201946FDF769F83B6B4FF000021A61FB6B0E
S214004130184607F14807BD4680BD00BF80B586B06B
S21400414002AFF860B9607A604FF0000300934FF05A
S21400415000030193F868B9687A684FF00003FFF728
S21400416037FE0346184607F11007BD4680BD00BF60
S21400417080B586B002AFF860B9607A603B604FF0F9
S214004180000300934FF000030193F868B9687A685B
S2140041903B68FFF71DFE0346184607F11007BD46AD
S2140041A080BD00BF80B58AB002AFF860B9607A60A3
S2140041B03B60F868FFF7E4F90346BB61BB69002B78
S2140041C002D14FF0FF3358E0BB691B681B78102BF9
S2140041D00DD04FF0000300934FF000030193F868F2
S2140041E0B9687A683B6800F04DF8034645E03B68DE
S2140041F003F01003002B02D04FF0030201E04FF053
S21400420001023B6803F00803002B02D04FF00403C2
S21400421001E04FF0000342EA0303DBB2FB774FF006
S21400422000037B61BB691A68FB7F07F114010091EC
S2140042301046B9687A68FDF76BF80346DBB2BB77C1
S21400424097F91E30C3F100030F2B0AD897F91E30DA
S214004250C3F1000245F63063C0F2020353F8223081
S21400426001E04FF00503BA69136197F91E30002B81
S21400427001D17B6901E04FF0FF33184607F12007B4
S214004280BD4680BD80B58CB000AFF860B9607A607E
S2140042903B60F868FFF774F903463B623B6A002B05
S2140042A002D14FF0FF33ADE03B6A1B681B78102B42
S2140042B007D1F868B9687A683B68FFF773FF03466A
S2140042C0A0E07A684FF6FF739A420FD945F6706001
S2140042D0C0F2020045F6A871C0F2020140F2323286
S2140042E045F6A863C0F20203FCF71EF87B68FB8461
S2140042F0BB6B002B02D1FB6B002B25D0FB6B102B6E
S21400430008D1BB6B5B78022B04D1BB6B03F00303B5
S214004310002B19D045F67060C0F2020045F6CC714D
S214004320C0F2020140F2373245F6A863C0F202033B
S214004330FBF7FAFF45F63063C0F202039A6B3B6A5E
S2140043401A614FF0FF335DE0BB6BBB624FF00003BA
S2140043507B617B693B61BB6B002B0CD0BB6A5B68E7
S214004360BB61BB6A5B88184601F09EFD0346FB8571
S214004370FB8DBB8308E04FF00003FB854FF0000386
S214004380BB614FF00003BB8307F11002FB8C1046A5
S214004390B9681A46FEF79EFF0346DBB287F825305B
S2140043A097F92530002B0BD13B6A1A6807F11003EA
S2140043B010461946FCF76CFF0346DBB287F825303B
S2140043C007F110031846FEF757FF97F92530C3F19B
S2140043D000030F2B0AD897F92530C3F1000245F6E3
S2140043E03063C0F2020353F8223001E04FF00503B9
S2140043F03A6A136197F92530002B01D1FB8C01E056
S2140044004FF0FF33184607F13007BD4680BD00BFAA
S21400441080B586B000AFF860B9607A60BB68022BE2
S21400442012D0032B02D0012B22D038E07B68DBB2FF
S2140044304FF04000194644F61D42C0F20002FCF759
S21400444075FA03463B612EE07B68882B02D14FF05D
S214004450210301E04FF0200318464FF0000144F618
S2140044601D42C0F20002FCF761FA03463B611AE007
S2140044704FF010004FF0000144F61D42C0F200025B
S214004480FCF754FA03463B613B69002B0AD03B69B4
S2140044901B7F43F00803DAB23B691A7703E04FF05C
S2140044A0FF331BE000BF3B69002B02D14FF0FF3308
S2140044B014E038694FF00001FFF7BEF803467B6151
S2140044C07B69B3F1FF3F05D13869FCF7BDFA4FF0C1
S2140044D0FF3303E03B697A699A617B69184607F106
S2140044E01807BD4680BD00BF80B584B000AFF86039
S2140044F0B9607A60F868B9687A684FF00003FFF729
S21400450051FE0346184607F11007BD4680BD00BFA2
S21400451080B58EB000AFF860B9607A603B604FF04F
S21400452000037B6207F11C0318464FF000014FF0B2
S214004530010214F079F807F1180318464FF000014D
S2140045404FF0010214F070F807F1140318464FF00C
S21400455000014FF0010214F067F84FF000033B62D1
S214004560E7E04FF00003FB624FF000037B864FF05E
S2140045700003BB864FF00003FB86386AFFF72AF875
S2140045800346BB62BB6A002B0BD0BB6A5B68FB6250
S214004590BB6A5B897B86BB6A9B89BB86BB6ADB89F9
S2140045A0FB86BB68002B40D03B6A03F10702002B5A
S2140045B0B8BF13464FEAE303BA68D35C1A463B6AB1
S2140045C003F0070342FA03F303F00103DBB2002B08
S2140045D02BD0FB6A002B03D1B7F93230002B24DD39
S2140045E03B6A03F10702002BB8BF13464FEAE3030A
S2140045F0194607F13800034413F81C3C1A463B6A78
S21400460003F007034FF0010000FA03F3DBB242EABF
S2140046100303DBB2DAB207F1380000EB010303F85C
S2140046201C2C7B6A03F101037B627B68002B3CD069
S2140046303B6A03F10702002BB8BF13464FEAE303B9
S2140046407A68D35C1A463B6A03F0070342FA03F320
S21400465003F00103DBB2002B27D0BB8E002B24D047
S2140046603B6A03F10702002BB8BF13464FEAE30389
S214004670194607F13802134413F8203C1A463B6AE1
S21400468003F007034FF0010000FA03F3DBB242EA3F
S2140046900303DBB2DAB207F1380000EB010303F8DC
S2140046A0202C7B6A03F101037B623B68002B3CD025
S2140046B03B6A03F10702002BB8BF13464FEAE30339
S2140046C03A68D35C1A463B6A03F0070342FA03F3E0
S2140046D003F00103DBB2002B27D0FB8E002B24D087
S2140046E03B6A03F10702002BB8BF13464FEAE30309
S2140046F0194607F13802134413F8243C1A463B6A5D
S21400470003F007034FF0010000FA03F3DBB242EABE
S2140047100303DBB2DAB207F1380000EB010303F85B
S214004720242C7B6A03F101037B623B6A03F10103DD
S2140047303B623A6AFB689A42FFF613AF3B6C3A7FDD
S2140047401A707B6C3A7E1A70BB6C3A7D1A707B6A64
S214004750002B0FDA45F67060C0F2020045F6EC71E9
S214004760C0F202014FF4876245F6A863C0F2020366
S214004770FBF7DAFD7B6A184607F13807BD4680BDB1
S21400478080B59AB004AFF860B9607A603B604FF0CD
S2140047900003FB6307F13803009307F1340301932A
S2140047A007F130030293F868B9687A683B68FFF748
S2140047B0AFFE03463B643B6C002B40F013823B6E1F
S2140047C0002B08D03B6E1B68002B04D13B6E5B6849
S2140047D0002B00F004824FF000037B614FF00003D3
S2140047E0BB61BB68FB617B683B623B687B624FF0EA
S2140047F00003BB6207F1140303F1180318464FF0D9
S2140048000001FBF713FE0346DBB287F84B3097F93F
S2140048104B30002B02D04FF0FF33F9E140F2A053AB
S214004820C1F6FF731B687B6140F2A053C1F6FF73AD
S2140048301B68002B07D040F2A053C1F6FF731B681D
S21400484007F114025A6040F2A053C1F6FF7307F155
S21400485014021A6040F2A453C1F6FF731B6803F1FA
S214004860010240F2A453C1F6FF731A604FF0000332
S214004870FB647DE0BB68002B14D0FB6C03F10702E1
S214004880002BB8BF13464FEAE303BA68D35C1A4658
S214004890FB6C03F0070342FA03F303F00103DBB2F9
S2140048A0002B2FD17B68002B14D0FB6C03F1070282
S2140048B0002BB8BF13464FEAE3037A68D35C1A4668
S2140048C0FB6C03F0070342FA03F303F00103DBB2C9
S2140048D0002B17D13B68002B46D0FB6C03F1070278
S2140048E0002BB8BF13464FEAE3033A68D35C1A4678
S2140048F0FB6C03F0070342FA03F303F00103DBB299
S214004900002B31D0F86CFEF765FE03463B653B6D29
S214004910002B0FD145F67060C0F2020045F6F87124
S214004920C0F2020140F2854245F6A863C0F20203D7
S214004930FBF7FAFC3B6D5B6903F101023B6D5A61C4
S2140049403B6D5B69002B0FDC45F67060C0F2020021
S21400495046F20801C0F202014FF4916245F6A863E0
S214004960C0F20203FBF7E0FCFB6C03F10103FB64FF
S214004970FA6CFB689A42FFF67DAF07F138030093A6
S21400498007F13403019307F130030293F868B9681E
S2140049907A683B68FFF7BCFD03463B643B6C002B24
S2140049A02ED13B6E002B03D14FF000037B641DE03D
S2140049B03B6E1B684FF47A7202FB03F13B6E5B683A
S2140049C003F5FA7244F6D353C1F2620383FB020383
S2140049D04FEAA3104FEAE273C3EB00030B447B6479
S2140049E07B6C002B02D14FF001037B6407F11403AC
S2140049F003F118031846796CFBF7A0FD0346FB632A
S214004A004FF00003FB647DE0BB68002B14D0FB6C0A
S214004A1003F10702002BB8BF13464FEAE303BA6858
S214004A20D35C1A46FB6C03F0070342FA03F303F069
S214004A300103DBB2002B2FD17B68002B14D0FB6C5C
S214004A4003F10702002BB8BF13464FEAE3037A6868
S214004A50D35C1A46FB6C03F0070342FA03F303F039
S214004A600103DBB2002B17D13B68002B46D0FB6C52
S214004A7003F10702002BB8BF13464FEAE3033A6878
S214004A80D35C1A46FB6C03F0070342FA03F303F009
S214004A900103DBB2002B31D0F86CFEF79BFD03461A
S214004AA07B657B6D002B0FD145F67060C0F202006F
S214004AB045F6F871C0F2020140F2A54245F6A86339
S214004AC0C0F20203FBF730FC7B6D5B6903F1FF323B
S214004AD07B6D5A617B6D5B69002B0FDA45F6706063
S214004AE0C0F2020046F22401C0F202014FF49562C1
S214004AF045F6A863C0F20203FBF716FCFB6C03F155
S214004B000103FB64FA6CFB689A42FFF67DAF7B6993
S214004B10002B02D07B69BA695A6040F2A053C1F6F6
S214004B20FF731B6807F114029A4219D1BB69002B68
S214004B300FD045F67060C0F2020046F24001C0F2A7
S214004B40020140F2B24245F6A863C0F20203FBF748
S214004B50EBFB7A6940F2A053C1F6FF731A6015E0CA
S214004B60BB69002B0FD145F67060C0F2020046F21A
S214004B705801C0F2020140F2B54245F6A863C0F201
S214004B800203FBF7D1FBBB697A691A6040F2A453B3
S214004B90C1F6FF731B6803F1010240F2A453C1F68D
S214004BA0FF731A6007F1140303F118031846FBF7A6
S214004BB085FCFB6BB3F1FF3F13D007F1380300937E
S214004BC007F13403019307F130030293F868B968DC
S214004BD07A683B68FFF79CFC03463B6402E000BF34
S214004BE000E000BFBB68002B03D0BB6897F83820F6
S214004BF01A707B68002B03D07B6897F834201A70F5
S214004C003B68002B03D03B6897F830201A703B6C4B
S214004C10184607F15807BD4680BD00BF80B588B06E
S214004C2000AF786013460A46FA703B807B68002B1C
S214004C3000F004817B689B69FB60FB68002B11DA3F
S214004C407B689B69002B0ADAFB78002B40F0F88023
S214004C507B689B6903F1FF327B689A61F5E07B68AD
S214004C609B69FB60F868FEF78BFC03463B613B697B
S214004C70002B00F0E780FB78042B2CD801A252F81A
S214004C8023F000BF994C0000A94C0000B94C00006E
S214004C90C34C0000CD4C00003B695B8903F1010367
S214004CA09AB23B695A8126E03B695B8903F1FF3380
S214004CB09AB23B695A811EE03B694FF001029A8125
S214004CC019E03B694FF000029A8114E03B694FF00F
S214004CD00102DA810FE045F67060C0F2020046F28B
S214004CE07001C0F2020140F2195245F6A863C0F204
S214004CF00203FBF719FB3B695B69002B00F0A480FD
S214004D0000E000BF40F2A053C1F6FF731B687B6152
S214004D108FE07B695B69002B79D14FF00003FB6164
S214004D203B695B891BB2002B1CDD7B699B68002BF3
S214004D3018D07B699A68FB6803F10701002BB8BF9F
S214004D400B464FEAE303D35C1A46FB6803F00703FF
S214004D5042FA03F303F00103DBB2002B02D04FF05C
S214004D600103FB613B699B89002B1FD0FB69002B6D
S214004D701CD17B69DB68002B18D07B69DA68FB687E
S214004D8003F10701002BB8BF0B464FEAE303D35CE1
S214004D901A46FB6803F0070342FA03F303F0010325
S214004DA0DBB2002B02D04FF00103FB613B69DB89CD
S214004DB0002B1FD0FB69002B1CD17B691B69002BC5
S214004DC018D07B691A69FB6803F10701002BB8BF8E
S214004DD00B464FEAE303D35C1A46FB6803F007036F
S214004DE042FA03F303F00103DBB2002B02D04FF0CC
S214004DF00103FB61FB69002B09D07B694FF00102C0
S214004E005A617B6903F118031846FBF777FB40F2FB
S214004E10A453C1F6FF731B68BB6140F2A453C1F6EE
S214004E20FF731B68BA699A427FF46BAF7B691B6895
S214004E307B617B69002B7FF46CAF06E000BF04E06B
S214004E4000BF02E000BF00E000BF07F12007BD463C
S214004E5080BD00BF80B584B000AF786039604FF089
S214004E600003BB734FF00003FB737868FEF788FB04
S214004E700346BB60BB68002B02D14FF0FF3360E0F7
S214004E80BB681B68002B0FD0BB681B681B78102BF9
S214004E9006D0BB684FF05F021A614FF05F0350E028
S214004EA03B68002B07D00AE0BB684FF06B021A6124
S214004EB04FF06B0345E04FF00103BB7317E03B6810
S214004EC0012B03D14FF00103FB7310E03B68022B6C
S214004ED006D14FF00103BB734FF00103FB7306E0EE
S214004EE0BB684FF016021A614FF0160329E0BB6844
S214004EF01968BA7BFB7B084611461A46FCF7ECFAA3
S214004F000346DBB27B7397F90D30C3F100030F2B1A
S214004F100AD897F90D30C3F1000245F63063C0F2A7
S214004F20020353F8223001E04FF00503BA6813611C
S214004F3097F90D30002B02D14FF0000301E04FF03F
S214004F40FF33184607F11007BD4680BD80B58AB00E
S214004F5000AFF860B9607A60FB70F868FEF710FB87
S214004F6003467B627B6A002B02D14FF0FF3338E0AA
S214004F7007F1140318464FF000014FF0100213F02B
S214004F8053FB4FF010033B754FF002037B757B6AB3
S214004F90186807F1100107F1140303F10202FB7809
S214004FA0FBF774FDFB8A184600F066FF0346FB829B
S214004FB03B69BB617B681B68102B03D97B684FF08D
S214004FC010021A607B681B6807F11402B868114665
S214004FD01A4613F061FA7B6A4FF000021A614FF02E
S214004FE00003184607F12807BD4680BD80B584B08B
S214004FF000AFF860B9607A60F868B9687A684FF010
S2140050000003FFF7A3FF0346184607F11007BD4647
S21400501080BD00BF80B584B000AFF860B9607A602C
S214005020F868B9687A684FF00103FFF78FFF034608
S214005030184607F11007BD4680BD00BF80B58CB08E
S21400504000AFF860B9607A603B604FF0000387F805
S2140050502B30F868FEF794FA0346FB62FB6A002BD7
S21400506002D14FF0FF33C9E03B68002B02D0BB6B88
S214005070002B06D1FB6A4FF00E021A614FF0FF3389
S214005080BCE0BB68062B5AD040F6FF72934202D0B3
S214005090002B40D070E07B68202B13D0202B04DC44
S2140050A0022B0FD0082B0DD02FE041F207029342BF
S2140050B02BDB41F20802934204DD41F20A029342DE
S2140050C009D022E0BB6B1B68032B03D84FF01603F6
S2140050D087F82B301EE0BB6B1B68032B03D84FF002
S2140050E0160387F82B30FB6A1B681B78202B07D12A
S2140050F0FB6A1B685B681B7C03F00203002B03D073
S2140051004FF0610387F82B3004E04FF05C0387F81C
S2140051102B3035E034E07B6803F1FF33012B09D8F0
S214005120BB6B1B68032B03D84FF0160387F82B3096
S21400513000BF25E04FF05C0387F82B3020E0BB6B08
S2140051401B68032B04D84FF0160387F82B3017E0A4
S214005150FB6A1B681B78102B02D04FF000034DE053
S2140051607B6803F1FF33012B01D800BF08E04FF046
S2140051705C0387F82B3003E04FF05C0387F82B3096
S21400518097F92B30002B06D097F92B20FB6A1A6173
S2140051904FF0FF3332E0FB6A3B61BB687B617B68A4
S2140051A0BB613B68FB61BB6B3B6297F82B3087F8B3
S2140051B0243007F1100345F20920C0F2000019461A
S2140051C04FF0010200F0A4FCFB6A1B6803F10C031D
S2140051D018464FF00001FBF7B1F997F8243087F82E
S2140051E02B3097F92B20FB6A1A6197F92B30002B8E
S2140051F002D04FF0FF3301E04FF00003184607F1EE
S2140052003007BD4680BD00BF80B588B000AF78606F
S2140052107B68002B0FD145F67060C0F2020046F2A4
S2140052208001C0F2020140F2816245F6A863C0F236
S2140052300203FBF779F87B68FB61FB691B68FB6080
S214005240FB695B683B61FB699B687B61FB69DB68AC
S214005250BB613B69062B00F0B58040F6FF729342B7
S21400526003D0002B00F08980D9E07B69202B13D077
S214005270202B04DC022B0FD0082B0DD06BE041F264
S2140052800802934213D041F20A0293425AD041F2E6
S214005290070293422CD05EE0BB69FA681268526837
S2140052A0127A11467A6901EA02021A6064E0FB6823
S2140052B01B681B7803F0F003202B0ED0402B02D087
S2140052C0102B05D00EE0BB694FF003021A600EE00B
S2140052D0BB694FF001021A6009E0BB694FF0020299
S2140052E01A6004E0BB69FA68126812781A6043E034
S2140052F0FB681B69002B03D0FB681B69732B18D156
S214005300FB681B681B7A5BB2C3F100030F2B0CD83B
S214005310FB681B681B7A5BB2C3F1000245F630637C
S214005320C0F2020353F8223001E04FF00503FA689A
S2140053301361BB69FA6812691A60FB684FF00002D5
S2140053401A6119E0BB69FA6812685268127C02F0AA
S21400535001021A6010E045F67060C0F2020046F2E4
S2140053608C01C0F202014FF4DB6245F6A863C0F27E
S2140053700203FAF7D9FF62E061E07B69012B08D0EF
S214005380022B0DD1BB69FA6812685268927A1A60CD
S21400539017E0BB69FA6812685268527A1A6010E021
S2140053A045F67060C0F2020046F28C01C0F20201BF
S2140053B04FF4E06245F6A863C0F20203FAF7B4FFC2
S2140053C03DE03CE07B69012B02D0022B0DD014E0BF
S2140053D0BB69FA6812685268927F02F04002002A9F
S2140053E00CBF002201221A6018E0BB69FA68126836
S2140053F05268D2F890201A6010E045F67060C0F24D
S214005400020046F28C01C0F2020140F2267245F616
S214005410A863C0F20203FAF787FF10E00FE045F634
S2140054207060C0F2020046F2A001C0F202014FF422
S214005430E86245F6A863C0F20203FAF775FFFB6858
S2140054401B6803F10C031846FBF758F807F1200712
S214005450BD4680BD80B58CB000AFF860B9607A609C
S2140054603B60F868FEF78CF80346BB624FF000031B
S21400547087F82F30BB6A002B02D14FF0FF33B5E020
S2140054803B68002B06D1BB6A4FF00E021A614FF044
S214005490FF33ABE0BB68062B49D040F6FF72934261
S2140054A002D0002B30D05EE07B68202B05D041F286
S2140054B00A02934209D0082B20D1BB6B032B03D8DA
S2140054C04FF0160387F82F301DE0BB6B032B03D875
S2140054D04FF0160387F82F30BB6A1B681B78202B0B
S2140054E007D1BB6A1B685B681B7C03F00203002BBA
S2140054F003D04FF0610387F82F3004E04FF05C03D1
S21400550087F82F3033E032E07B6803F1FF33012B5E
S21400551008D8BB6B032B03D84FF0160387F82F3041
S21400552000BF24E04FF05C0387F82F301FE0BB6B12
S214005530032B04D84FF0160387F82F3017E0BB6A0A
S2140055401B681B78102B02D04FF000034EE07B68E0
S21400555003F1FF33012B01D800BF08E04FF05C03D6
S21400556087F82F3003E04FF05C0387F82F3097F969
S2140055702F30002B06D097F92F20BB6A1A614FF008
S214005580FF3333E0BB6A3B61BB687B617B68BB6112
S2140055903B68FB6107F138033B6297F82F3087F8CA
S2140055A0243007F1100345F2F950C0F20000194606
S2140055B04FF0010200F0ACFABB6A1B6803F10C0363
S2140055C018464FF00001FAF7B9FF97F8243087F82D
S2140055D02F3097F92F20BB6A1A6197F92F30002BCE
S2140055E002D04FF0FF3301E04FF00003184607F1FA
S2140055F03007BD4680BD00BF80B588B000AF78607C
S2140056007B68002B0FD145F67060C0F2020046F2B0
S2140056108001C0F2020140F6220245F6A863C0F2FD
S2140056200203FAF781FE7B68FB61FB691B68FB607F
S214005630FB695B683B61FB699B687B61FB69DB68B8
S214005640BB613B69062B00F08B8040F6FF729342ED
S21400565002D0002B5DD0BEE07B69202B05D041F246
S2140056600A02934228D0082B41D1BB691B68002B45
S2140056700FD0FB681B685B68FA6812685268127A7B
S21400568011467A69D2B241EA0202D2B2D2B21A7294
S21400569011E0FB681B685B68FA6812685268127A49
S2140056A011467A69D2B26FEA0202D2B201EA020267
S2140056B0D2B2D2B21A722BE0BB691B68002B0BD099
S2140056C0FB681B685B68FA6812685268127C42F0D6
S2140056D00102D2B21A7409E0FB681B685A68FB68BC
S2140056E01B685B681B7C03F0FE03137410E045F632
S2140056F07060C0F2020046F28C01C0F2020140F671
S2140057005F0245F6A863C0F20203FAF70DFE72E0E8
S21400571071E07B69012B09D0022B0FD1FB681B6857
S2140057205B68BA691268D2B29A7218E0FB681B68A6
S2140057305B68BA691268D2B25A7210E045F67060B9
S214005740C0F2020046F28C01C0F2020140F694025A
S21400575045F6A863C0F20203FAF7E6FD4BE04AE01E
S2140057607B69012B02D0022B1BD022E0BB691B6891
S214005770002B0BD0FB681B685B68FA6812685268DF
S214005780927F42F04002D2B29A7709E0FB681B682B
S2140057905A68FB681B685B689B7F03F0BF039377C0
S2140057A018E0FB681B685B68BA691268C3F890204B
S2140057B010E045F67060C0F2020046F28C01C0F2BE
S2140057C0020140F6BE0245F6A863C0F20203FAF7ED
S2140057D0ABFD10E00FE045F67060C0F2020046F246
S2140057E0A001C0F2020140F6E20245F6A863C0F24C
S2140057F00203FAF799FDFB681B6803F10C031846D1
S214005800FAF77CFE07F12007BD4680BD80B586B05E
S21400581000AFF860B9607A60F868FDF7B1FE03463D
S2140058203B613B69002B02D14FF0FF3335E0BA688D
S21400583046F27E63C8F204039A4228D14FF0000372
S214005840FB757B68002B06D07B681B68002B02D09C
S2140058504FF00103FB75FB7D002B09D03B691B68ED
S2140058603A691268127F42F00202D2B21A7707E053
S2140058703B691A683B691B681B7F03F0FD031377BF
S2140058803B694FF000021A614FF0000305E03B69E8
S2140058904FF026021A614FF0FF33184607F118073B
S2140058A0BD4680BD80B586B000AFF860B9607A604E
S2140058B0F868FDF765FE03463B614FF0FF337B61FA
S2140058C03B69002B03D03B691B68002B02D14FF0CD
